{
  "_format": "hh-sol-artifact-1",
  "contractName": "SASSharedRegistry",
  "sourceName": "contracts/SASSharedRegistry.sol",
  "abi": [
    {
      "inputs": [],
      "stateMutability": "nonpayable",
      "type": "constructor"
    },
    {
      "anonymous": false,
      "inputs": [
        {
          "indexed": true,
          "internalType": "bytes32",
          "name": "fccId",
          "type": "bytes32"
        },
        {
          "indexed": true,
          "internalType": "bytes32",
          "name": "serialNumber",
          "type": "bytes32"
        },
        {
          "indexed": true,
          "internalType": "address",
          "name": "sasOrigin",
          "type": "address"
        }
      ],
      "name": "CBSDRegistered",
      "type": "event"
    },
    {
      "anonymous": false,
      "inputs": [
        {
          "indexed": true,
          "internalType": "bytes32",
          "name": "fccId",
          "type": "bytes32"
        }
      ],
      "name": "FCCIdBlacklisted",
      "type": "event"
    },
    {
      "anonymous": false,
      "inputs": [
        {
          "indexed": true,
          "internalType": "bytes32",
          "name": "fccId",
          "type": "bytes32"
        },
        {
          "indexed": false,
          "internalType": "uint256",
          "name": "maxEirp",
          "type": "uint256"
        }
      ],
      "name": "FCCIdInjected",
      "type": "event"
    },
    {
      "anonymous": false,
      "inputs": [
        {
          "indexed": true,
          "internalType": "bytes32",
          "name": "fccId",
          "type": "bytes32"
        },
        {
          "indexed": true,
          "internalType": "bytes32",
          "name": "serialNumber",
          "type": "bytes32"
        },
        {
          "indexed": false,
          "internalType": "bytes32",
          "name": "grantId",
          "type": "bytes32"
        },
        {
          "indexed": true,
          "internalType": "address",
          "name": "sasOrigin",
          "type": "address"
        }
      ],
      "name": "GrantCreated",
      "type": "event"
    },
    {
      "anonymous": false,
      "inputs": [
        {
          "indexed": true,
          "internalType": "bytes32",
          "name": "fccId",
          "type": "bytes32"
        },
        {
          "indexed": true,
          "internalType": "bytes32",
          "name": "serialNumber",
          "type": "bytes32"
        },
        {
          "indexed": false,
          "internalType": "bytes32",
          "name": "grantId",
          "type": "bytes32"
        },
        {
          "indexed": true,
          "internalType": "address",
          "name": "sasOrigin",
          "type": "address"
        }
      ],
      "name": "GrantTerminated",
      "type": "event"
    },
    {
      "anonymous": false,
      "inputs": [
        {
          "indexed": true,
          "internalType": "address",
          "name": "sas",
          "type": "address"
        }
      ],
      "name": "SASAuthorized",
      "type": "event"
    },
    {
      "anonymous": false,
      "inputs": [
        {
          "indexed": true,
          "internalType": "address",
          "name": "sas",
          "type": "address"
        }
      ],
      "name": "SASRevoked",
      "type": "event"
    },
    {
      "anonymous": false,
      "inputs": [
        {
          "indexed": true,
          "internalType": "bytes32",
          "name": "fccId",
          "type": "bytes32"
        },
        {
          "indexed": true,
          "internalType": "bytes32",
          "name": "serialNumber",
          "type": "bytes32"
        }
      ],
      "name": "SerialNumberBlacklisted",
      "type": "event"
    },
    {
      "anonymous": false,
      "inputs": [
        {
          "indexed": true,
          "internalType": "bytes32",
          "name": "userId",
          "type": "bytes32"
        }
      ],
      "name": "UserIdInjected",
      "type": "event"
    },
    {
      "inputs": [
        {
          "internalType": "bytes32",
          "name": "fccId",
          "type": "bytes32"
        }
      ],
      "name": "BlacklistByFccId",
      "outputs": [],
      "stateMutability": "nonpayable",
      "type": "function"
    },
    {
      "inputs": [
        {
          "internalType": "bytes32",
          "name": "fccId",
          "type": "bytes32"
        },
        {
          "internalType": "bytes32",
          "name": "serialNumber",
          "type": "bytes32"
        }
      ],
      "name": "BlacklistByFccIdAndSerialNumber",
      "outputs": [],
      "stateMutability": "nonpayable",
      "type": "function"
    },
    {
      "inputs": [
        {
          "internalType": "bytes32",
          "name": "fccId",
          "type": "bytes32"
        },
        {
          "internalType": "bytes32",
          "name": "cbsdSerialNumber",
          "type": "bytes32"
        }
      ],
      "name": "Deregistration",
      "outputs": [],
      "stateMutability": "nonpayable",
      "type": "function"
    },
    {
      "inputs": [
        {
          "components": [
            {
              "internalType": "bytes32",
              "name": "fccId",
              "type": "bytes32"
            },
            {
              "internalType": "bytes32",
              "name": "cbsdSerialNumber",
              "type": "bytes32"
            },
            {
              "internalType": "bytes32",
              "name": "channelType",
              "type": "bytes32"
            },
            {
              "internalType": "uint256",
              "name": "maxEirp",
              "type": "uint256"
            },
            {
              "internalType": "uint256",
              "name": "lowFrequency",
              "type": "uint256"
            },
            {
              "internalType": "uint256",
              "name": "highFrequency",
              "type": "uint256"
            },
            {
              "internalType": "uint256",
              "name": "requestedMaxEirp",
              "type": "uint256"
            },
            {
              "internalType": "uint256",
              "name": "requestedLowFrequency",
              "type": "uint256"
            },
            {
              "internalType": "uint256",
              "name": "requestedHighFrequency",
              "type": "uint256"
            },
            {
              "internalType": "uint256",
              "name": "grantExpireTime",
              "type": "uint256"
            }
          ],
          "internalType": "struct SASSharedRegistry.GrantRequest",
          "name": "req",
          "type": "tuple"
        }
      ],
      "name": "GrantSpectrum",
      "outputs": [],
      "stateMutability": "nonpayable",
      "type": "function"
    },
    {
      "inputs": [
        {
          "internalType": "bytes32",
          "name": "fccId",
          "type": "bytes32"
        },
        {
          "internalType": "bytes32",
          "name": "cbsdSerialNumber",
          "type": "bytes32"
        },
        {
          "internalType": "bytes32",
          "name": "grantId",
          "type": "bytes32"
        }
      ],
      "name": "Heartbeat",
      "outputs": [],
      "stateMutability": "view",
      "type": "function"
    },
    {
      "inputs": [
        {
          "internalType": "bytes32",
          "name": "fccId",
          "type": "bytes32"
        },
        {
          "internalType": "uint256",
          "name": "maxEirp",
          "type": "uint256"
        }
      ],
      "name": "InjectFccId",
      "outputs": [],
      "stateMutability": "nonpayable",
      "type": "function"
    },
    {
      "inputs": [
        {
          "internalType": "bytes32",
          "name": "userId",
          "type": "bytes32"
        }
      ],
      "name": "InjectUserId",
      "outputs": [],
      "stateMutability": "nonpayable",
      "type": "function"
    },
    {
      "inputs": [
        {
          "components": [
            {
              "internalType": "bytes32",
              "name": "fccId",
              "type": "bytes32"
            },
            {
              "internalType": "bytes32",
              "name": "userId",
              "type": "bytes32"
            },
            {
              "internalType": "bytes32",
              "name": "cbsdSerialNumber",
              "type": "bytes32"
            },
            {
              "internalType": "bytes32",
              "name": "callSign",
              "type": "bytes32"
            },
            {
              "internalType": "bytes32",
              "name": "cbsdCategory",
              "type": "bytes32"
            },
            {
              "internalType": "bytes32",
              "name": "airInterface",
              "type": "bytes32"
            },
            {
              "internalType": "bytes32[]",
              "name": "measCapability",
              "type": "bytes32[]"
            },
            {
              "internalType": "uint256",
              "name": "eirpCapability",
              "type": "uint256"
            },
            {
              "internalType": "int256",
              "name": "latitude",
              "type": "int256"
            },
            {
              "internalType": "int256",
              "name": "longitude",
              "type": "int256"
            },
            {
              "internalType": "uint256",
              "name": "height",
              "type": "uint256"
            },
            {
              "internalType": "bytes32",
              "name": "heightType",
              "type": "bytes32"
            },
            {
              "internalType": "bool",
              "name": "indoorDeployment",
              "type": "bool"
            },
            {
              "internalType": "uint256",
              "name": "antennaGain",
              "type": "uint256"
            },
            {
              "internalType": "uint256",
              "name": "antennaBeamwidth",
              "type": "uint256"
            },
            {
              "internalType": "uint256",
              "name": "antennaAzimuth",
              "type": "uint256"
            },
            {
              "internalType": "bytes32",
              "name": "groupingParam",
              "type": "bytes32"
            },
            {
              "internalType": "address",
              "name": "cbsdAddress",
              "type": "address"
            }
          ],
          "internalType": "struct SASSharedRegistry.RegistrationRequest",
          "name": "req",
          "type": "tuple"
        }
      ],
      "name": "Registration",
      "outputs": [],
      "stateMutability": "nonpayable",
      "type": "function"
    },
    {
      "inputs": [
        {
          "internalType": "bytes32",
          "name": "fccId",
          "type": "bytes32"
        },
        {
          "internalType": "bytes32",
          "name": "cbsdSerialNumber",
          "type": "bytes32"
        },
        {
          "internalType": "bytes32",
          "name": "grantId",
          "type": "bytes32"
        }
      ],
      "name": "Relinquishment",
      "outputs": [],
      "stateMutability": "nonpayable",
      "type": "function"
    },
    {
      "inputs": [],
      "name": "Reset",
      "outputs": [],
      "stateMutability": "nonpayable",
      "type": "function"
    },
    {
      "inputs": [],
      "name": "TriggerFullActivityDump",
      "outputs": [],
      "stateMutability": "nonpayable",
      "type": "function"
    },
    {
      "inputs": [
        {
          "internalType": "address",
          "name": "_sas",
          "type": "address"
        }
      ],
      "name": "authorizeSAS",
      "outputs": [],
      "stateMutability": "nonpayable",
      "type": "function"
    },
    {
      "inputs": [
        {
          "internalType": "address",
          "name": "",
          "type": "address"
        }
      ],
      "name": "authorizedSAS",
      "outputs": [
        {
          "internalType": "bool",
          "name": "",
          "type": "bool"
        }
      ],
      "stateMutability": "view",
      "type": "function"
    },
    {
      "inputs": [
        {
          "internalType": "bytes32",
          "name": "",
          "type": "bytes32"
        }
      ],
      "name": "blacklistedFccIds",
      "outputs": [
        {
          "internalType": "bool",
          "name": "",
          "type": "bool"
        }
      ],
      "stateMutability": "view",
      "type": "function"
    },
    {
      "inputs": [
        {
          "internalType": "bytes32",
          "name": "",
          "type": "bytes32"
        }
      ],
      "name": "blacklistedSerialNumbers",
      "outputs": [
        {
          "internalType": "bool",
          "name": "",
          "type": "bool"
        }
      ],
      "stateMutability": "view",
      "type": "function"
    },
    {
      "inputs": [
        {
          "internalType": "bytes32",
          "name": "",
          "type": "bytes32"
        }
      ],
      "name": "cbsds",
      "outputs": [
        {
          "internalType": "bytes32",
          "name": "fccId",
          "type": "bytes32"
        },
        {
          "internalType": "bytes32",
          "name": "userId",
          "type": "bytes32"
        },
        {
          "internalType": "bytes32",
          "name": "cbsdSerialNumber",
          "type": "bytes32"
        },
        {
          "internalType": "bytes32",
          "name": "callSign",
          "type": "bytes32"
        },
        {
          "internalType": "bytes32",
          "name": "cbsdCategory",
          "type": "bytes32"
        },
        {
          "internalType": "bytes32",
          "name": "airInterface",
          "type": "bytes32"
        },
        {
          "internalType": "uint256",
          "name": "eirpCapability",
          "type": "uint256"
        },
        {
          "internalType": "int256",
          "name": "latitude",
          "type": "int256"
        },
        {
          "internalType": "int256",
          "name": "longitude",
          "type": "int256"
        },
        {
          "internalType": "uint256",
          "name": "height",
          "type": "uint256"
        },
        {
          "internalType": "bytes32",
          "name": "heightType",
          "type": "bytes32"
        },
        {
          "internalType": "bool",
          "name": "indoorDeployment",
          "type": "bool"
        },
        {
          "internalType": "uint256",
          "name": "antennaGain",
          "type": "uint256"
        },
        {
          "internalType": "uint256",
          "name": "antennaBeamwidth",
          "type": "uint256"
        },
        {
          "internalType": "uint256",
          "name": "antennaAzimuth",
          "type": "uint256"
        },
        {
          "internalType": "bytes32",
          "name": "groupingParam",
          "type": "bytes32"
        },
        {
          "internalType": "address",
          "name": "cbsdAddress",
          "type": "address"
        },
        {
          "internalType": "address",
          "name": "sasOrigin",
          "type": "address"
        },
        {
          "internalType": "uint256",
          "name": "registrationTimestamp",
          "type": "uint256"
        }
      ],
      "stateMutability": "view",
      "type": "function"
    },
    {
      "inputs": [
        {
          "internalType": "bytes32",
          "name": "",
          "type": "bytes32"
        }
      ],
      "name": "fccIds",
      "outputs": [
        {
          "internalType": "bool",
          "name": "",
          "type": "bool"
        }
      ],
      "stateMutability": "view",
      "type": "function"
    },
    {
      "inputs": [
        {
          "internalType": "bytes32",
          "name": "fccId",
          "type": "bytes32"
        },
        {
          "internalType": "bytes32",
          "name": "cbsdSerialNumber",
          "type": "bytes32"
        }
      ],
      "name": "getCBSDInfo",
      "outputs": [
        {
          "components": [
            {
              "internalType": "bytes32",
              "name": "fccId",
              "type": "bytes32"
            },
            {
              "internalType": "bytes32",
              "name": "userId",
              "type": "bytes32"
            },
            {
              "internalType": "bytes32",
              "name": "cbsdSerialNumber",
              "type": "bytes32"
            },
            {
              "internalType": "bytes32",
              "name": "callSign",
              "type": "bytes32"
            },
            {
              "internalType": "bytes32",
              "name": "cbsdCategory",
              "type": "bytes32"
            },
            {
              "internalType": "bytes32",
              "name": "airInterface",
              "type": "bytes32"
            },
            {
              "internalType": "bytes32[]",
              "name": "measCapability",
              "type": "bytes32[]"
            },
            {
              "internalType": "uint256",
              "name": "eirpCapability",
              "type": "uint256"
            },
            {
              "internalType": "int256",
              "name": "latitude",
              "type": "int256"
            },
            {
              "internalType": "int256",
              "name": "longitude",
              "type": "int256"
            },
            {
              "internalType": "uint256",
              "name": "height",
              "type": "uint256"
            },
            {
              "internalType": "bytes32",
              "name": "heightType",
              "type": "bytes32"
            },
            {
              "internalType": "bool",
              "name": "indoorDeployment",
              "type": "bool"
            },
            {
              "internalType": "uint256",
              "name": "antennaGain",
              "type": "uint256"
            },
            {
              "internalType": "uint256",
              "name": "antennaBeamwidth",
              "type": "uint256"
            },
            {
              "internalType": "uint256",
              "name": "antennaAzimuth",
              "type": "uint256"
            },
            {
              "internalType": "bytes32",
              "name": "groupingParam",
              "type": "bytes32"
            },
            {
              "internalType": "address",
              "name": "cbsdAddress",
              "type": "address"
            },
            {
              "internalType": "address",
              "name": "sasOrigin",
              "type": "address"
            },
            {
              "internalType": "uint256",
              "name": "registrationTimestamp",
              "type": "uint256"
            }
          ],
          "internalType": "struct SASSharedRegistry.CBSD",
          "name": "",
          "type": "tuple"
        }
      ],
      "stateMutability": "view",
      "type": "function"
    },
    {
      "inputs": [
        {
          "internalType": "bytes32",
          "name": "fccId",
          "type": "bytes32"
        },
        {
          "internalType": "bytes32",
          "name": "cbsdSerialNumber",
          "type": "bytes32"
        }
      ],
      "name": "getGrants",
      "outputs": [
        {
          "components": [
            {
              "internalType": "bytes32",
              "name": "grantId",
              "type": "bytes32"
            },
            {
              "internalType": "bytes32",
              "name": "channelType",
              "type": "bytes32"
            },
            {
              "internalType": "uint256",
              "name": "grantExpireTime",
              "type": "uint256"
            },
            {
              "internalType": "bool",
              "name": "terminated",
              "type": "bool"
            },
            {
              "internalType": "uint256",
              "name": "maxEirp",
              "type": "uint256"
            },
            {
              "internalType": "uint256",
              "name": "lowFrequency",
              "type": "uint256"
            },
            {
              "internalType": "uint256",
              "name": "highFrequency",
              "type": "uint256"
            },
            {
              "internalType": "uint256",
              "name": "requestedMaxEirp",
              "type": "uint256"
            },
            {
              "internalType": "uint256",
              "name": "requestedLowFrequency",
              "type": "uint256"
            },
            {
              "internalType": "uint256",
              "name": "requestedHighFrequency",
              "type": "uint256"
            },
            {
              "internalType": "address",
              "name": "sasOrigin",
              "type": "address"
            },
            {
              "internalType": "uint256",
              "name": "grantTimestamp",
              "type": "uint256"
            }
          ],
          "internalType": "struct SASSharedRegistry.Grant[]",
          "name": "",
          "type": "tuple[]"
        }
      ],
      "stateMutability": "view",
      "type": "function"
    },
    {
      "inputs": [
        {
          "internalType": "bytes32",
          "name": "",
          "type": "bytes32"
        },
        {
          "internalType": "uint256",
          "name": "",
          "type": "uint256"
        }
      ],
      "name": "grants",
      "outputs": [
        {
          "internalType": "bytes32",
          "name": "grantId",
          "type": "bytes32"
        },
        {
          "internalType": "bytes32",
          "name": "channelType",
          "type": "bytes32"
        },
        {
          "internalType": "uint256",
          "name": "grantExpireTime",
          "type": "uint256"
        },
        {
          "internalType": "bool",
          "name": "terminated",
          "type": "bool"
        },
        {
          "internalType": "uint256",
          "name": "maxEirp",
          "type": "uint256"
        },
        {
          "internalType": "uint256",
          "name": "lowFrequency",
          "type": "uint256"
        },
        {
          "internalType": "uint256",
          "name": "highFrequency",
          "type": "uint256"
        },
        {
          "internalType": "uint256",
          "name": "requestedMaxEirp",
          "type": "uint256"
        },
        {
          "internalType": "uint256",
          "name": "requestedLowFrequency",
          "type": "uint256"
        },
        {
          "internalType": "uint256",
          "name": "requestedHighFrequency",
          "type": "uint256"
        },
        {
          "internalType": "address",
          "name": "sasOrigin",
          "type": "address"
        },
        {
          "internalType": "uint256",
          "name": "grantTimestamp",
          "type": "uint256"
        }
      ],
      "stateMutability": "view",
      "type": "function"
    },
    {
      "inputs": [
        {
          "internalType": "bytes32",
          "name": "fccId",
          "type": "bytes32"
        },
        {
          "internalType": "bytes32",
          "name": "cbsdSerialNumber",
          "type": "bytes32"
        }
      ],
      "name": "isCBSDRegistered",
      "outputs": [
        {
          "internalType": "bool",
          "name": "",
          "type": "bool"
        }
      ],
      "stateMutability": "view",
      "type": "function"
    },
    {
      "inputs": [],
      "name": "owner",
      "outputs": [
        {
          "internalType": "address",
          "name": "",
          "type": "address"
        }
      ],
      "stateMutability": "view",
      "type": "function"
    },
    {
      "inputs": [
        {
          "internalType": "address",
          "name": "_sas",
          "type": "address"
        }
      ],
      "name": "revokeSAS",
      "outputs": [],
      "stateMutability": "nonpayable",
      "type": "function"
    },
    {
      "inputs": [],
      "name": "totalCbsds",
      "outputs": [
        {
          "internalType": "uint256",
          "name": "",
          "type": "uint256"
        }
      ],
      "stateMutability": "view",
      "type": "function"
    },
    {
      "inputs": [],
      "name": "totalGrants",
      "outputs": [
        {
          "internalType": "uint256",
          "name": "",
          "type": "uint256"
        }
      ],
      "stateMutability": "view",
      "type": "function"
    },
    {
      "inputs": [
        {
          "internalType": "bytes32",
          "name": "",
          "type": "bytes32"
        }
      ],
      "name": "userIds",
      "outputs": [
        {
          "internalType": "bool",
          "name": "",
          "type": "bool"
        }
      ],
      "stateMutability": "view",
      "type": "function"
    }
  ],
  "bytecode": "0x608080604052346065573360018060a01b031960005416176000553360005260016020526040600020600160ff19825416179055337ff9253a470d3ac8ce6a7c7c4d5b1bea05e7a79ab2de6a49027ddb5e842f1e7a33600080a2611874908161006b8239f35b600080fdfe610140604052600436101561001357600080fd5b60003560e01c80630d69bcf01461167a5780630fa32be9146115ff57806318328eba146115965780631c3fd5261461142f57806333301285146113fe5780633b79804c146110de578063628419ba146110ad5780636423db341461107b57806378abb6d914610fb85780637984040014610e1e57806388b240ab14610db15780638da5cb5b14610d88578063916f959d14610d57578063951f9490146109545780639aeaa1601461088a578063a0412a5914610821578063a2e592e7146106b8578063a9b127071461064e578063b03776ca1461060b578063bedeafdd14610410578063d9211be8146103f2578063de8d6f85146103d4578063e68c7fe5146103ac578063e773e04314610334578063e8e9a0dd146103035763f6ffb9771461013b57600080fd5b346102fe5761016c61014c366116a5565b9033600052600160205261016760ff60406000205416611744565b611818565b8060005260026020526101856040600020541515611788565b80600052600260205260406000206000815560006001820155600060028201556000600382015560006004820155600060058201556006810180549060008155816102dd575b5050601360009182600782015582600882015582600982015582600a82015582600b82015582600c82015582600d82015582600e82015582600f8201558260108201558260118201558260128201550155600052600360205260406000208054906000815581610260575b5050600854801561024a5760001901600855005b634e487b7160e01b600052601160045260246000fd5b81600c0291600c83040361024a576000526020600020908101905b8181101561023657600c90600081556000600182015560006002820155600060038201556000600482015560006005820155600060068201556000600782015560006008820155600060098201556000600a8201556000600b8201550161027b565b6000526020600020908101905b818110156101cb57600081556001016102ea565b600080fd5b346102fe5760203660031901126102fe576004356000526005602052602060ff604060002054166040519015158152f35b346102fe5760203660031901126102fe576004356001600160a01b038116908190036102fe5761036f60018060a01b03600054163314611707565b806000526001602052604060002060ff1981541690557f2c1e02fb47e9d84e471ccc6d02067a9583b0a4a2381dd618b21364f0e9402987600080a2005b346102fe5760003660031901126102fe576103d260018060a01b03600054163314611707565b005b346102fe5760003660031901126102fe576020600854604051908152f35b346102fe5760003660031901126102fe576020600954604051908152f35b346102fe57610427610421366116a5565b90611818565b6000526003602052604060002080549067ffffffffffffffff82116105f5576040519161045a60208260051b01846117e7565b808352602083019081926000526020600020916000905b8282106105405784866040519182916020830190602084525180915260408301919060005b8181106104a4575050500390f35b9193509160206101806001926101608751805183528481015185840152604081015160408401526060810151151560608401526080810151608084015260a081015160a084015260c081015160c084015260e081015160e0840152610100810151610100840152610120810151610120840152858060a01b03610140820151166101408401520151610160820152019401910191849392610496565b604051610180810181811067ffffffffffffffff8211176105f557600192600c926020926040528754815284880154838201526002880154604082015260ff6003890154161515606082015260048801546080820152600588015460a0820152600688015460c0820152600788015460e082015260088801546101008201526009880154610120820152848060a01b03600a89015416610140820152600b880154610160820152815201940191019092610471565b634e487b7160e01b600052604160045260246000fd5b346102fe5760203660031901126102fe576004356001600160a01b038116908190036102fe576000526001602052602060ff604060002054166040519015158152f35b346102fe5760207f6b8606ae6f4b16fca23dd7d4f0262115b33a1e7356f90804e6fd96edd801e9ea61067f366116a5565b61069760018060a09694961b03600054163314611707565b83600052600482526040600020600160ff19825416179055604051908152a2005b346102fe5760203660031901126102fe5760043560005260026020526010600f600e600d60ff600c600b600a600960086007600560046003601360406000209e8f9e8f9e8f9e8f9e8f9e8f9e8f9e8f9e8f9e8f9e8f9e8f9e8f9e8f549f60018101546101005260028101546101205201549f01549f01549f01549f01549f01549f01549f01549f0154169e01549e01549e01549e01549e60018060a01b0360118201541660805260018060a01b0360128201541660c052015460e05260405160a05260a0515261010051602060a051015261012051604060a0510152606060a0510152608060a051015260a08051015260c060a051015260e060a051015261010060a051015261012060a051015261014060a0510152151561016060a051015261018060a05101526101a060a05101526101c060a05101526101e060a051015260805161020060a051015260c05161022060a051015260e05161024060a051015261026060a051f35b346102fe5760203660031901126102fe5760043561084a60018060a01b03600054163314611707565b8060005260056020526040600020600160ff198254161790557fb2004a3a73fd24ce7b77698ee363392937037ec9d77a01ff218bb02f4eae45ff600080a2005b346102fe57610898366116bb565b91903360005260016020526108b460ff60406000205416611744565b6108be8183611818565b8060005260026020526108d76040600020541515611788565b600052600360205260406000209160005b83548110156103d257846108fc82866116d5565b50541461090b576001016108e8565b6109199060039293946116d5565b5001600160ff198254161790556040519283527f8141ca310ba51eac1a2ee4204b7fbb625b6571af5cd83d2d817958528622917c60203394a4005b346102fe5760203660031901126102fe5760043567ffffffffffffffff81116102fe578036036102406003198201126102fe573360005260016020526109a160ff60406000205416611744565b8160040135906044830135906109b78284611818565b93602481013594806000526002602052604060002054610d1c5784600052600460205260ff6040600020541615610cdf5785600052600560205260ff6040600020541615610ca15784600052600660205260ff60406000205416610c675780600052600760205260ff60406000205416610c225760005260026020526040600020948486556001860155826002860155606481013560038601556084810135600486015560a4810135600586015560e4810135600786015561010481013560088601556101248101356009860155610144810135600a860155610164810135600b8601556101848101358015158091036102fe57600c86019060ff801983541691161790556101a4810135600d8601556101c4810135600e8601556101e4810135600f860155610204810135601086015561022481013560018060a01b03811681036102fe576011860180546001600160a01b03199081166001600160a01b039093169290921790556012860180549091163317905542601386015560c481013591602219018212156102fe570160048101359067ffffffffffffffff82116102fe57602401938160051b360385136102fe57600601600094600160401b8311610c0e578154838355808410610be8575b5090855260208520855b838110610bd45750505050610ba8600854611809565b60085533917f610b7b2b3a50dd75dc756eccd84aeb8fc66d2db157014dbafd0b343207a3dd8c8480a480f35b600190602084359401938184015501610b92565b828752836020882091820191015b818110610c035750610b88565b878155600101610bf6565b634e487b7160e01b86526041600452602486fd5b60405162461bcd60e51b815260206004820152601960248201527f53657269616c206e756d62657220626c61636b6c6973746564000000000000006044820152606490fd5b60405162461bcd60e51b81526020600482015260126024820152711190d0c8125108189b1858dadb1a5cdd195960721b6044820152606490fd5b60405162461bcd60e51b8152602060048201526016602482015275155cd95c881251081b9bdd08185d5d1a1bdc9a5e995960521b6044820152606490fd5b60405162461bcd60e51b81526020600482015260156024820152741190d0c81251081b9bdd08185d5d1a1bdc9a5e9959605a1b6044820152606490fd5b60405162461bcd60e51b81526020600482015260136024820152724342534420616c72656164792065786973747360681b6044820152606490fd5b346102fe5760203660031901126102fe576004356000526006602052602060ff604060002054166040519015158152f35b346102fe5760003660031901126102fe576000546040516001600160a01b039091168152602090f35b346102fe57610dbf366116a5565b90610dd560018060a01b03600054163314611707565b610ddf8282611818565b60005260076020526040600020600160ff198254161790557f4c43121be90134b8ef2f5d2f91d5e062f01e3250a44a815df0f8c4f5d303e7e9600080a3005b346102fe576101403660031901126102fe5760003381526001602052610e4a60ff604083205416611744565b600435602435610e5a8183611818565b918284526002602052610e7260408520541515611788565b828452600360205260408420546040516020810191656772616e745f60d01b8352836026830152846046830152606682015260668152610eb36086826117e7565b519020928452600360205260408420805490600160401b821015610c0e5760018201808255610ee283836116d5565b50508211610fa45790610ef4916116d5565b50838155604435600182015561012435600282015560038101805460ff191690556064356004820155608435600582015560a435600682015560c435600782015560e435600882015561010435600980830191909155600a820180546001600160a01b0319163317905542600b9092019190915554610f7290611809565b6009556040519283527fba02895a4bd2083fb7f23429299eeb32e45f5ab936cc9328c908634de74deaee60203394a480f35b634e487b7160e01b86526011600452602486fd5b346102fe57610fc6366116a5565b906000526003602052604060002080548210156102fe5761018091610fea916116d5565b50805490600181015490600281015460ff60038301541660048301546005840154600685015490600786015492600887015494600988015496600b60018060a01b03600a8b015416990154996040519b8c5260208c015260408b0152151560608a0152608089015260a088015260c087015260e0860152610100850152610120840152610140830152610160820152f35b346102fe5760003660031901126102fe576110a160018060a01b03600054163314611707565b60006008819055600955005b346102fe5760203660031901126102fe576004356000526004602052602060ff604060002054166040519015158152f35b346102fe576111836110ef366116a5565b906000610260604051611101816117ca565b8281528260208201528260408201528260608201528260808201528260a0820152606060c08201528260e08201528261010082015282610120820152826101408201528261016082015282610180820152826101a0820152826101c0820152826101e08201528261020082015282610220820152826102408201520152611818565b600052600260205260406000206040519061119d826117ca565b8054825260018101546020830152600281015460408301526003810154606083015260048101546080830152600581015460a0830152600681016040518082602082945493848152019060005260206000209260005b8181106113e5575050611208925003826117e7565b60c0830152600781015460e0830152601360088201549161010084019283526009810154610120850152600a810154610140850152600b81015461016085015260ff600c820154161515610180850152600d8101546101a0850152600e8101546101c0850152600f8101546101e0850152601081015461020085015260018060a01b0360118201541661022085015260018060a01b03601282015416610240850152015461026083015260405190602082526102a082019083516020840152602084015160408401526040840151606084015260608401516080840152608084015160a084015260a084015160c084015260c08401519161028060e0850152825180915260206102c0850193019060005b8181106113cf57505050836102609160e0859601516101008601525161012085015261012081015161014085015261014081015161016085015261016081015161018085015261018081015115156101a08501526101a08101516101c08501526101c08101516101e08501526101e081015161020085015261020081015161022085015260018060a01b036102208201511661024085015260018060a01b03610240820151168285015201516102808301520390f35b8251855260209485019490920191600101611319565b84548352600194850194869450602090930192016111f3565b346102fe5760203660031901126102fe576004356000526007602052602060ff604060002054166040519015158152f35b346102fe5761145c611440366116bb565b929133600052600160205261016760ff60406000205416611744565b908160005260026020526114766040600020541515611788565b6000918252600360205260408220805491835b8381106114d3575b505050501561149c57005b60405162461bcd60e51b815260206004820152600f60248201526e11dc985b9d081b9bdd08199bdd5b99608a1b6044820152606490fd5b816114de82856116d5565b5054146114ed57600101611489565b935050905060ff600361150084846116d5565b5001541661155e57600291611514916116d5565b50015442101561152957600181808080611491565b60405162461bcd60e51b815260206004820152600d60248201526c11dc985b9d08195e1c1a5c9959609a1b6044820152606490fd5b60405162461bcd60e51b815260206004820152601060248201526f11dc985b9d081d195c9b5a5b985d195960821b6044820152606490fd5b346102fe5760203660031901126102fe576004356115bf60018060a01b03600054163314611707565b8060005260066020526040600020600160ff198254161790557f9d971f04c1a833f7d67a96d88489938e2a333f26fd9000f1415d45668c9ecfad600080a2005b346102fe5760203660031901126102fe576004356001600160a01b038116908190036102fe5761163a60018060a01b03600054163314611707565b8060005260016020526040600020600160ff198254161790557ff9253a470d3ac8ce6a7c7c4d5b1bea05e7a79ab2de6a49027ddb5e842f1e7a33600080a2005b346102fe5761168b610421366116a5565b600052600260205260206040600020541515604051908152f35b60409060031901126102fe576004359060243590565b60609060031901126102fe57600435906024359060443590565b80548210156116f157600052600c602060002091020190600090565b634e487b7160e01b600052603260045260246000fd5b1561170e57565b60405162461bcd60e51b815260206004820152600e60248201526d139bdd08185d5d1a1bdc9a5e995960921b6044820152606490fd5b1561174b57565b60405162461bcd60e51b81526020600482015260156024820152744e6f7420616e20617574686f72697a65642053415360581b6044820152606490fd5b1561178f57565b60405162461bcd60e51b815260206004820152601360248201527210d094d1081b9bdd081c9959da5cdd195c9959606a1b6044820152606490fd5b610280810190811067ffffffffffffffff8211176105f557604052565b90601f8019910116810190811067ffffffffffffffff8211176105f557604052565b600019811461024a5760010190565b9060405190602082019283526040820152604081526118386060826117e7565b5190209056fea2646970667358221220095729ec53835862834a7bc3e9dbd7ad69be9b74f164eb55164dcff582a41efc64736f6c634300081c0033",
  "linkReferences": {},
  "deployedLinkReferences": {}
}