{
  "_format": "hh-sol-artifact-1",
  "contractName": "SASSharedRegistry",
  "sourceName": "contracts/SASSharedRegistry.sol",
  "abi": [
    {
      "inputs": [],
      "stateMutability": "nonpayable",
      "type": "constructor"
    },
    {
      "anonymous": false,
      "inputs": [
        {
          "indexed": true,
          "internalType": "string",
          "name": "fccId",
          "type": "string"
        },
        {
          "indexed": true,
          "internalType": "string",
          "name": "serialNumber",
          "type": "string"
        },
        {
          "indexed": true,
          "internalType": "address",
          "name": "sasOrigin",
          "type": "address"
        }
      ],
      "name": "CBSDRegistered",
      "type": "event"
    },
    {
      "anonymous": false,
      "inputs": [
        {
          "indexed": true,
          "internalType": "string",
          "name": "fccId",
          "type": "string"
        },
        {
          "indexed": true,
          "internalType": "string",
          "name": "serialNumber",
          "type": "string"
        },
        {
          "indexed": false,
          "internalType": "string",
          "name": "grantId",
          "type": "string"
        },
        {
          "indexed": true,
          "internalType": "address",
          "name": "sasOrigin",
          "type": "address"
        }
      ],
      "name": "GrantCreated",
      "type": "event"
    },
    {
      "anonymous": false,
      "inputs": [
        {
          "indexed": true,
          "internalType": "string",
          "name": "fccId",
          "type": "string"
        },
        {
          "indexed": true,
          "internalType": "string",
          "name": "serialNumber",
          "type": "string"
        },
        {
          "indexed": false,
          "internalType": "string",
          "name": "grantId",
          "type": "string"
        },
        {
          "indexed": true,
          "internalType": "address",
          "name": "sasOrigin",
          "type": "address"
        }
      ],
      "name": "GrantTerminated",
      "type": "event"
    },
    {
      "anonymous": false,
      "inputs": [
        {
          "indexed": true,
          "internalType": "address",
          "name": "sas",
          "type": "address"
        }
      ],
      "name": "SASAuthorized",
      "type": "event"
    },
    {
      "anonymous": false,
      "inputs": [
        {
          "indexed": true,
          "internalType": "address",
          "name": "sas",
          "type": "address"
        }
      ],
      "name": "SASRevoked",
      "type": "event"
    },
    {
      "inputs": [
        {
          "internalType": "address",
          "name": "_sas",
          "type": "address"
        }
      ],
      "name": "authorizeSAS",
      "outputs": [],
      "stateMutability": "nonpayable",
      "type": "function"
    },
    {
      "inputs": [
        {
          "internalType": "address",
          "name": "",
          "type": "address"
        }
      ],
      "name": "authorizedSAS",
      "outputs": [
        {
          "internalType": "bool",
          "name": "",
          "type": "bool"
        }
      ],
      "stateMutability": "view",
      "type": "function"
    },
    {
      "inputs": [
        {
          "internalType": "bytes32",
          "name": "",
          "type": "bytes32"
        }
      ],
      "name": "cbsds",
      "outputs": [
        {
          "internalType": "string",
          "name": "fccId",
          "type": "string"
        },
        {
          "internalType": "string",
          "name": "userId",
          "type": "string"
        },
        {
          "internalType": "string",
          "name": "cbsdSerialNumber",
          "type": "string"
        },
        {
          "internalType": "string",
          "name": "callSign",
          "type": "string"
        },
        {
          "internalType": "string",
          "name": "cbsdCategory",
          "type": "string"
        },
        {
          "internalType": "string",
          "name": "airInterface",
          "type": "string"
        },
        {
          "internalType": "uint256",
          "name": "eirpCapability",
          "type": "uint256"
        },
        {
          "internalType": "int256",
          "name": "latitude",
          "type": "int256"
        },
        {
          "internalType": "int256",
          "name": "longitude",
          "type": "int256"
        },
        {
          "internalType": "uint256",
          "name": "height",
          "type": "uint256"
        },
        {
          "internalType": "string",
          "name": "heightType",
          "type": "string"
        },
        {
          "internalType": "bool",
          "name": "indoorDeployment",
          "type": "bool"
        },
        {
          "internalType": "uint256",
          "name": "antennaGain",
          "type": "uint256"
        },
        {
          "internalType": "uint256",
          "name": "antennaBeamwidth",
          "type": "uint256"
        },
        {
          "internalType": "uint256",
          "name": "antennaAzimuth",
          "type": "uint256"
        },
        {
          "internalType": "string",
          "name": "groupingParam",
          "type": "string"
        },
        {
          "internalType": "string",
          "name": "cbsdAddress",
          "type": "string"
        },
        {
          "internalType": "address",
          "name": "sasOrigin",
          "type": "address"
        },
        {
          "internalType": "uint256",
          "name": "registrationTimestamp",
          "type": "uint256"
        }
      ],
      "stateMutability": "view",
      "type": "function"
    },
    {
      "inputs": [
        {
          "internalType": "string",
          "name": "fccId",
          "type": "string"
        },
        {
          "internalType": "string",
          "name": "cbsdSerialNumber",
          "type": "string"
        }
      ],
      "name": "deregistration",
      "outputs": [],
      "stateMutability": "nonpayable",
      "type": "function"
    },
    {
      "inputs": [
        {
          "components": [
            {
              "internalType": "string",
              "name": "fccId",
              "type": "string"
            },
            {
              "internalType": "string",
              "name": "cbsdSerialNumber",
              "type": "string"
            },
            {
              "internalType": "string",
              "name": "channelType",
              "type": "string"
            },
            {
              "internalType": "uint256",
              "name": "maxEirp",
              "type": "uint256"
            },
            {
              "internalType": "uint256",
              "name": "lowFrequency",
              "type": "uint256"
            },
            {
              "internalType": "uint256",
              "name": "highFrequency",
              "type": "uint256"
            },
            {
              "internalType": "uint256",
              "name": "requestedMaxEirp",
              "type": "uint256"
            },
            {
              "internalType": "uint256",
              "name": "requestedLowFrequency",
              "type": "uint256"
            },
            {
              "internalType": "uint256",
              "name": "requestedHighFrequency",
              "type": "uint256"
            },
            {
              "internalType": "uint256",
              "name": "grantExpireTime",
              "type": "uint256"
            }
          ],
          "internalType": "struct SASSharedRegistry.GrantRequest",
          "name": "req",
          "type": "tuple"
        }
      ],
      "name": "grant",
      "outputs": [],
      "stateMutability": "nonpayable",
      "type": "function"
    },
    {
      "inputs": [
        {
          "internalType": "bytes32",
          "name": "",
          "type": "bytes32"
        },
        {
          "internalType": "uint256",
          "name": "",
          "type": "uint256"
        }
      ],
      "name": "grants",
      "outputs": [
        {
          "internalType": "string",
          "name": "grantId",
          "type": "string"
        },
        {
          "internalType": "string",
          "name": "channelType",
          "type": "string"
        },
        {
          "internalType": "uint256",
          "name": "grantExpireTime",
          "type": "uint256"
        },
        {
          "internalType": "bool",
          "name": "terminated",
          "type": "bool"
        },
        {
          "internalType": "uint256",
          "name": "maxEirp",
          "type": "uint256"
        },
        {
          "internalType": "uint256",
          "name": "lowFrequency",
          "type": "uint256"
        },
        {
          "internalType": "uint256",
          "name": "highFrequency",
          "type": "uint256"
        },
        {
          "internalType": "uint256",
          "name": "requestedMaxEirp",
          "type": "uint256"
        },
        {
          "internalType": "uint256",
          "name": "requestedLowFrequency",
          "type": "uint256"
        },
        {
          "internalType": "uint256",
          "name": "requestedHighFrequency",
          "type": "uint256"
        },
        {
          "internalType": "address",
          "name": "sasOrigin",
          "type": "address"
        },
        {
          "internalType": "uint256",
          "name": "grantTimestamp",
          "type": "uint256"
        }
      ],
      "stateMutability": "view",
      "type": "function"
    },
    {
      "inputs": [],
      "name": "owner",
      "outputs": [
        {
          "internalType": "address",
          "name": "",
          "type": "address"
        }
      ],
      "stateMutability": "view",
      "type": "function"
    },
    {
      "inputs": [
        {
          "components": [
            {
              "internalType": "string",
              "name": "fccId",
              "type": "string"
            },
            {
              "internalType": "string",
              "name": "userId",
              "type": "string"
            },
            {
              "internalType": "string",
              "name": "cbsdSerialNumber",
              "type": "string"
            },
            {
              "internalType": "string",
              "name": "callSign",
              "type": "string"
            },
            {
              "internalType": "string",
              "name": "cbsdCategory",
              "type": "string"
            },
            {
              "internalType": "string",
              "name": "airInterface",
              "type": "string"
            },
            {
              "internalType": "string[]",
              "name": "measCapability",
              "type": "string[]"
            },
            {
              "internalType": "uint256",
              "name": "eirpCapability",
              "type": "uint256"
            },
            {
              "internalType": "int256",
              "name": "latitude",
              "type": "int256"
            },
            {
              "internalType": "int256",
              "name": "longitude",
              "type": "int256"
            },
            {
              "internalType": "uint256",
              "name": "height",
              "type": "uint256"
            },
            {
              "internalType": "string",
              "name": "heightType",
              "type": "string"
            },
            {
              "internalType": "bool",
              "name": "indoorDeployment",
              "type": "bool"
            },
            {
              "internalType": "uint256",
              "name": "antennaGain",
              "type": "uint256"
            },
            {
              "internalType": "uint256",
              "name": "antennaBeamwidth",
              "type": "uint256"
            },
            {
              "internalType": "uint256",
              "name": "antennaAzimuth",
              "type": "uint256"
            },
            {
              "internalType": "string",
              "name": "groupingParam",
              "type": "string"
            },
            {
              "internalType": "string",
              "name": "cbsdAddress",
              "type": "string"
            }
          ],
          "internalType": "struct SASSharedRegistry.RegistrationRequest",
          "name": "req",
          "type": "tuple"
        }
      ],
      "name": "registration",
      "outputs": [],
      "stateMutability": "nonpayable",
      "type": "function"
    },
    {
      "inputs": [
        {
          "internalType": "string",
          "name": "fccId",
          "type": "string"
        },
        {
          "internalType": "string",
          "name": "cbsdSerialNumber",
          "type": "string"
        },
        {
          "internalType": "string",
          "name": "grantId",
          "type": "string"
        }
      ],
      "name": "relinquishment",
      "outputs": [],
      "stateMutability": "nonpayable",
      "type": "function"
    },
    {
      "inputs": [
        {
          "internalType": "address",
          "name": "_sas",
          "type": "address"
        }
      ],
      "name": "revokeSAS",
      "outputs": [],
      "stateMutability": "nonpayable",
      "type": "function"
    },
    {
      "inputs": [],
      "name": "totalCbsds",
      "outputs": [
        {
          "internalType": "uint256",
          "name": "",
          "type": "uint256"
        }
      ],
      "stateMutability": "view",
      "type": "function"
    },
    {
      "inputs": [],
      "name": "totalGrants",
      "outputs": [
        {
          "internalType": "uint256",
          "name": "",
          "type": "uint256"
        }
      ],
      "stateMutability": "view",
      "type": "function"
    }
  ],
  "bytecode": "0x608080604052346065573360018060a01b031960005416176000553360005260016020526040600020600160ff19825416179055337ff9253a470d3ac8ce6a7c7c4d5b1bea05e7a79ab2de6a49027ddb5e842f1e7a33600080a2611c4a908161006b8239f35b600080fdfe610140604052600436101561001357600080fd5b60003560e01c80630de0ae0f14610da65780630fa32be914610d2b57806378abb6d914610c365780638da5cb5b14610c0d578063979a368e146109dd578063a2e592e7146107c4578063b03776ca14610781578063c5e186331461058c578063d9211be81461056e578063de8d6f8514610550578063e773e043146104d85763e89ecd72146100a157600080fd5b346104d35760203660031901126104d3576004356001600160401b0381116104d3578060040161014060031983360301126104d35761012e60209233600052600184526100f560ff604060002054166119fa565b6100ff8380611a3e565b929061012860248401946101206101168789611a3e565b9490923691611996565b923691611996565b90611bc9565b806000526002855261014e61014760406000205461184f565b1515611b67565b6101b061015b8580611a3e565b969060266101698789611a3e565b866000939293526003855260406000205492818c6040519d8e97656772616e745f60d01b8a8a01528689013786019184830160008152370101908152038088520186611889565b80600052600360205260406000208054600160401b811015610438576101db9160018201815561181d565b50506000908152600360205260409020805460001981019081116104bd576102029161181d565b509084516001600160401b0381116104385761022881610222855461184f565b85611a87565b6020601f82116001146104595790806102579260009161044e575b508160011b916000199060031b1c19161790565b82555b6102676044820185611a3e565b60018401916001600160401b0382116104385761028882610222855461184f565b600090601f83116001146103cf5791806102bf926101049695946000926103c4575b50508160011b916000199060031b1c19161790565b90555b61012481013560028401556003830160ff198154169055606481013560048401556084810135600584015560a4810135600684015560c4810135600784015560e4810135600884015501356009820155600a810160018060a01b0333166bffffffffffffffffffffffff60a01b825416179055600b42910155610346600554611b1b565b60055561035e6103568380611a3e565b929093611a3e565b91909281604051928392833781016000815203902091816040519283928337810160008152039020907f329c3dac258de228876dc5e4f52e5477d35a7d0c99205ece9a8ab33093cdad0f60405160208152806103bf33966020830190611971565b0390a4005b0135905038806102aa565b8382526020822091601f198416815b81811061042057509160019391856101049897969410610406575b505050811b0190556102c2565b0135600019600384901b60f8161c191690553880806103f9565b919360206001819287870135815501950192016103de565b634e487b7160e01b600052604160045260246000fd5b905087015138610243565b601f1982169084600052806000209160005b8181106104a55750908360019493921061048c575b5050811b01825561025a565b88015160001960f88460031b161c191690553880610480565b9192602060018192868d01518155019401920161046b565b634e487b7160e01b600052601160045260246000fd5b600080fd5b346104d35760203660031901126104d3576004356001600160a01b038116908190036104d35761051360018060a01b03600054163314611b2a565b806000526001602052604060002060ff1981541690557f2c1e02fb47e9d84e471ccc6d02067a9583b0a4a2381dd618b21364f0e9402987600080a2005b346104d35760003660031901126104d3576020600454604051908152f35b346104d35760003660031901126104d3576020600554604051908152f35b346104d35760603660031901126104d3576004356001600160401b0381116104d3576105bc9036906004016119dc565b6024356001600160401b0381116104d3576105db9036906004016119dc565b906044356001600160401b0381116104d3576105fb9036906004016119dc565b9133600052600160205261061660ff604060002054166119fa565b6106208183611bc9565b80600052600260205261063a61014760406000205461184f565b600052600360205260406000209160009260208501935b815481101561077f57610664818361181d565b506040518154918160006106778561184f565b928383526020830195600181169081600014610760575060011461071e575b506106a392500382611889565b51902086518620146106b757600101610651565b6106e59394506106cd6003916106df949361181d565b5001805460ff19166001179055611ba9565b91611ba9565b907f544c6f09ee1b67e675df5697fb3434a95bed263c7cfd8e8ecb28de5075b6e62b60405160208152806103bf33966020830190611971565b9150506000526020600020906000915b8183106107475750508160206106a3928201018b610696565b805460208486018101919091529092019160010161072e565b60ff19168752506106a393151560051b830160200191508c9050610696565b005b346104d35760203660031901126104d3576004356001600160a01b038116908190036104d3576000526001602052602060ff604060002054166040519015158152f35b346104d35760203660031901126104d357600435600052600260205260406000206107ee816118aa565b6107fa600183016118aa565b6101005261080a600283016118aa565b610120528161081b600382016118aa565b91610828600483016118aa565b92610835600584016118aa565b600784015460088501546009860154600a87015491610856600b89016118aa565b94600c89015460ff1699600d8a015497600e8b015499600f8c01549b60100161087e906118aa565b9d61088b601182016118aa565b60805260128101546001600160a01b031660e0526013015460a05260405160c081815261026091829052516108c292910190611971565b60c051810360c0516020015261010051906108dc91611971565b60c051810360c0516040015261012051906108f691611971565b60c051810360c0516060015261090b91611971565b60c051810360c0516080015261092091611971565b60c051810360c05160a0015261093591611971565b9360c05160c0015260c05160e0015260c051610100015260c051610120015260c051810360c051610140015261096a91611971565b93151560c051610160015260c051610180015260c0516101a0015260c0516101c0015260c051810360c0516101e001526109a391611971565b60c051810360c0516102000152608051906109bd91611971565b60e05160c051610220015260a05160c051610240015260c051900360c051f35b346104d35760403660031901126104d3576004356001600160401b0381116104d357610a0d9036906004016119dc565b602435906001600160401b0382116104d357610a30610a509236906004016119dc565b90336000526001602052610a4b60ff604060002054166119fa565b611bc9565b806000526002602052610a6a61014760406000205461184f565b8060005260026020526040600020610a8181611acc565b610a8d60018201611acc565b610a9960028201611acc565b610aa560038201611acc565b610ab160048201611acc565b610abd60058201611acc565b600681018054906000815581610be6575b5050601360009182600782015582600882015582600982015582600a820155610af9600b8201611acc565b82600c82015582600d82015582600e82015582600f820155610b1d60108201611acc565b610b2960118201611acc565b8260128201550155600052600360205260406000208054906000815581610b5f575b505060045480156104bd5760001901600455005b81600c0291600c8304036104bd576000526020600020908101905b81811015610b4b5780610b8e600c92611acc565b610b9a60018201611acc565b60006002820155600060038201556000600482015560006005820155600060068201556000600782015560006008820155600060098201556000600a8201556000600b82015501610b7a565b6000526020600020908101905b81811015610ace5780610c07600192611acc565b01610bf3565b346104d35760003660031901126104d3576000546040516001600160a01b039091168152602090f35b346104d35760403660031901126104d357602435600435600052600360205260406000209081548110156104d357610c6d9161181d565b50610180610c7a826118aa565b91610c87600182016118aa565b60028201549160ff600382015416600482015460058301546006840154600785015491600886015493600987015495610cee600b60018060a01b03600a8b01541699015499610ce06040519e8f9e8f8181520190611971565b8d810360208f015290611971565b9960408c0152151560608b015260808a015260a089015260c088015260e08701526101008601526101208501526101408401526101608301520390f35b346104d35760203660031901126104d3576004356001600160a01b038116908190036104d357610d6660018060a01b03600054163314611b2a565b8060005260016020526040600020600160ff198254161790557ff9253a470d3ac8ce6a7c7c4d5b1bea05e7a79ab2de6a49027ddb5e842f1e7a33600080a2005b346104d35760203660031901126104d3576004356001600160401b0381116104d35780600401908036036102406003198201126104d357610e1c91336000526001602052610dfb60ff604060002054166119fa565b610e058480611a3e565b93906101286044840195610120610116888a611a3e565b806000526002602052610e3360406000205461184f565b6117e2576000526002602052604060002091610e4f8580611a3e565b906001600160401b03821161043857610e7282610e6c875461184f565b87611a87565b600090601f831160011461177e57610ea29291600091836113f85750508160011b916000199060031b1c19161790565b83555b610eb26024830186611a3e565b60018501916001600160401b03821161043857610ed382610222855461184f565b600090601f831160011461171a57610f0392916000918361157f5750508160011b916000199060031b1c19161790565b90555b610f108486611a3e565b60028501916001600160401b03821161043857610f3182610222855461184f565b600090601f83116001146116b657610f6192916000918361157f5750508160011b916000199060031b1c19161790565b90555b610f716064830186611a3e565b60038501916001600160401b03821161043857610f9282610222855461184f565b600090601f831160011461165257610fc292916000918361157f5750508160011b916000199060031b1c19161790565b90555b610fd26084830186611a3e565b60048501916001600160401b03821161043857610ff382610222855461184f565b600090601f83116001146115ee5761102392916000918361157f5750508160011b916000199060031b1c19161790565b90555b61103360a4830186611a3e565b60058501916001600160401b0382116104385761105482610222855461184f565b600090601f831160011461158a5761108492916000918361157f5750508160011b916000199060031b1c19161790565b90555b60c482013590602219018112156104d35781016004810135906001600160401b0382116104d357602401908060051b360382136104d3576006840191600160401b8211610438578254828455808310611550575b506000928352602083209290805b83831061146757505050505060e4810135600783015561010481013560088301556101248101356009830155610144810135600a83015561112e610164820185611a3e565b600b8401916001600160401b0382116104385761114f82610222855461184f565b600090601f83116001146114035761117f9291600091836113f85750508160011b916000199060031b1c19161790565b90555b6101848101358015158091036104d357600c83019060ff801983541691161790556101a4810135600d8301556101c4810135600e8301556101e4810135600f8301556111d2610204820185611a3e565b60108401916001600160401b038211610438576111f382610222855461184f565b600090601f831160011461138c57826112369593610224959361122c936000926113815750508160011b916000199060031b1c19161790565b90555b0184611a3e565b60118301916001600160401b0382116104385761125782610222855461184f565b600090601f831160011461131d576112879291600091836113125750508160011b916000199060031b1c19161790565b90555b6012810180546001600160a01b03191633179055426013909101556004546112b190611b1b565b6004556112c16103568380611a3e565b9190928160405192839283378101600081520390209181604051928392833781016000815203902033917fa0dadc79a900797935f24d266e98b64b68e7aedd412001ece19e875b04a3b865600080a4005b0135905087806102aa565b8382526020822091601f198416815b818110611369575090846001959493921061134f575b505050811b01905561128a565b0135600019600384901b60f8161c19169055868080611342565b9193602060018192878701358155019501920161132c565b013590508a806102aa565b8382526020822091601f198416815b8181106113e0575092600192859261123698966102249896106113c6575b505050811b01905561122f565b0135600019600384901b60f8161c191690558980806113b9565b9193602060018192878701358155019501920161139b565b0135905088806102aa565b8382526020822091601f198416815b81811061144f5750908460019594939210611435575b505050811b019055611182565b0135600019600384901b60f8161c19169055878080611428565b91936020600181928787013581550195019201611412565b6114718183611a3e565b906001600160401b038211610438576114948261148e895461184f565b89611a87565b600090601f83116001146114e657926114cc836001959460209487966000926114db5750508160011b916000199060031b1c19161790565b88555b019501920191936110e9565b013590508f806102aa565b8782526020822091601f198416815b818110611538575093602093600196938796938388951061151e575b505050811b0188556114cf565b0135600019600384901b60f8161c191690558e8080611511565b919360206001819287870135815501950192016114f5565b8360005282602060002091820191015b81811061156d57506110db565b80611579600192611acc565b01611560565b0135905089806102aa565b8382526020822091601f198416815b8181106115d657509084600195949392106115bc575b505050811b019055611087565b0135600019600384901b60f8161c191690558880806115af565b91936020600181928787013581550195019201611599565b8382526020822091601f198416815b81811061163a5750908460019594939210611620575b505050811b019055611026565b0135600019600384901b60f8161c19169055888080611613565b919360206001819287870135815501950192016115fd565b8382526020822091601f198416815b81811061169e5750908460019594939210611684575b505050811b019055610fc5565b0135600019600384901b60f8161c19169055888080611677565b91936020600181928787013581550195019201611661565b8382526020822091601f198416815b81811061170257509084600195949392106116e8575b505050811b019055610f64565b0135600019600384901b60f8161c191690558880806116db565b919360206001819287870135815501950192016116c5565b8382526020822091601f198416815b818110611766575090846001959493921061174c575b505050811b019055610f06565b0135600019600384901b60f8161c1916905588808061173f565b91936020600181928787013581550195019201611729565b8582526020822091601f198416815b8181106117ca57509084600195949392106117b0575b505050811b018355610ea5565b0135600019600384901b60f8161c191690558780806117a3565b9193602060018192878701358155019501920161178d565b60405162461bcd60e51b81526020600482015260136024820152724342534420616c72656164792065786973747360681b6044820152606490fd5b805482101561183957600052600c602060002091020190600090565b634e487b7160e01b600052603260045260246000fd5b90600182811c9216801561187f575b602083101461186957565b634e487b7160e01b600052602260045260246000fd5b91607f169161185e565b90601f801991011681019081106001600160401b0382111761043857604052565b90604051918260008254926118be8461184f565b808452936001811690811561192c57506001146118e5575b506118e392500383611889565b565b90506000929192526020600020906000915b8183106119105750509060206118e392820101386118d6565b60209193508060019154838589010152019101909184926118f7565b9050602092506118e394915060ff191682840152151560051b820101386118d6565b60005b8381106119615750506000910152565b8181015183820152602001611951565b9060209161198a8151809281855285808601910161194e565b601f01601f1916010190565b9291926001600160401b03821161043857604051916119bf601f8201601f191660200184611889565b8294818452818301116104d3578281602093846000960137010152565b9080601f830112156104d3578160206119f793359101611996565b90565b15611a0157565b60405162461bcd60e51b81526020600482015260156024820152744e6f7420616e20617574686f72697a65642053415360581b6044820152606490fd5b903590601e19813603018212156104d357018035906001600160401b0382116104d3576020019181360383136104d357565b818110611a7b575050565b60008155600101611a70565b9190601f8111611a9657505050565b6118e3926000526020600020906020601f840160051c83019310611ac2575b601f0160051c0190611a70565b9091508190611ab5565b611ad6815461184f565b9081611ae0575050565b81601f60009311600114611af2575055565b81835260208320611b0e91601f0160051c810190600101611a70565b8082528160208120915555565b60001981146104bd5760010190565b15611b3157565b60405162461bcd60e51b815260206004820152600e60248201526d139bdd08185d5d1a1bdc9a5e995960921b6044820152606490fd5b15611b6e57565b60405162461bcd60e51b815260206004820152601360248201527210d094d1081b9bdd081c9959da5cdd195c9959606a1b6044820152606490fd5b611bc19060206040519282848094519384920161194e565b810103902090565b90611c0e60209160405192839181611bea818501978881519384920161194e565b8301611bfe8251809385808501910161194e565b010103601f198101835282611889565b5190209056fea2646970667358221220840a70a41fdf6958299519affdb3834a3ebe25a4e245bef16c5050d4924c4d7264736f6c634300081c0033",
  "linkReferences": {},
  "deployedLinkReferences": {}
}