{
  "_format": "hh-sol-artifact-1",
  "contractName": "SASSharedRegistry",
  "sourceName": "contracts/SASSharedRegistry.sol",
  "abi": [
    {
      "inputs": [],
      "stateMutability": "nonpayable",
      "type": "constructor"
    },
    {
      "anonymous": false,
      "inputs": [
        {
          "indexed": true,
          "internalType": "string",
          "name": "fccId",
          "type": "string"
        },
        {
          "indexed": true,
          "internalType": "string",
          "name": "serialNumber",
          "type": "string"
        },
        {
          "indexed": true,
          "internalType": "address",
          "name": "sasOrigin",
          "type": "address"
        }
      ],
      "name": "CBSDRegistered",
      "type": "event"
    },
    {
      "anonymous": false,
      "inputs": [
        {
          "indexed": true,
          "internalType": "string",
          "name": "fccId",
          "type": "string"
        },
        {
          "indexed": true,
          "internalType": "string",
          "name": "serialNumber",
          "type": "string"
        },
        {
          "indexed": false,
          "internalType": "string",
          "name": "grantId",
          "type": "string"
        },
        {
          "indexed": true,
          "internalType": "address",
          "name": "sasOrigin",
          "type": "address"
        }
      ],
      "name": "GrantCreated",
      "type": "event"
    },
    {
      "anonymous": false,
      "inputs": [
        {
          "indexed": true,
          "internalType": "string",
          "name": "fccId",
          "type": "string"
        },
        {
          "indexed": true,
          "internalType": "string",
          "name": "serialNumber",
          "type": "string"
        },
        {
          "indexed": false,
          "internalType": "string",
          "name": "grantId",
          "type": "string"
        },
        {
          "indexed": true,
          "internalType": "address",
          "name": "sasOrigin",
          "type": "address"
        }
      ],
      "name": "GrantTerminated",
      "type": "event"
    },
    {
      "anonymous": false,
      "inputs": [
        {
          "indexed": true,
          "internalType": "address",
          "name": "sas",
          "type": "address"
        }
      ],
      "name": "SASAuthorized",
      "type": "event"
    },
    {
      "anonymous": false,
      "inputs": [
        {
          "indexed": true,
          "internalType": "address",
          "name": "sas",
          "type": "address"
        }
      ],
      "name": "SASRevoked",
      "type": "event"
    },
    {
      "inputs": [
        {
          "internalType": "address",
          "name": "_sas",
          "type": "address"
        }
      ],
      "name": "authorizeSAS",
      "outputs": [],
      "stateMutability": "nonpayable",
      "type": "function"
    },
    {
      "inputs": [
        {
          "internalType": "address",
          "name": "",
          "type": "address"
        }
      ],
      "name": "authorizedSAS",
      "outputs": [
        {
          "internalType": "bool",
          "name": "",
          "type": "bool"
        }
      ],
      "stateMutability": "view",
      "type": "function"
    },
    {
      "inputs": [
        {
          "internalType": "bytes32",
          "name": "",
          "type": "bytes32"
        }
      ],
      "name": "cbsds",
      "outputs": [
        {
          "internalType": "string",
          "name": "fccId",
          "type": "string"
        },
        {
          "internalType": "string",
          "name": "userId",
          "type": "string"
        },
        {
          "internalType": "string",
          "name": "cbsdSerialNumber",
          "type": "string"
        },
        {
          "internalType": "string",
          "name": "callSign",
          "type": "string"
        },
        {
          "internalType": "string",
          "name": "cbsdCategory",
          "type": "string"
        },
        {
          "internalType": "string",
          "name": "airInterface",
          "type": "string"
        },
        {
          "internalType": "uint256",
          "name": "eirpCapability",
          "type": "uint256"
        },
        {
          "internalType": "int256",
          "name": "latitude",
          "type": "int256"
        },
        {
          "internalType": "int256",
          "name": "longitude",
          "type": "int256"
        },
        {
          "internalType": "uint256",
          "name": "height",
          "type": "uint256"
        },
        {
          "internalType": "string",
          "name": "heightType",
          "type": "string"
        },
        {
          "internalType": "bool",
          "name": "indoorDeployment",
          "type": "bool"
        },
        {
          "internalType": "uint256",
          "name": "antennaGain",
          "type": "uint256"
        },
        {
          "internalType": "uint256",
          "name": "antennaBeamwidth",
          "type": "uint256"
        },
        {
          "internalType": "uint256",
          "name": "antennaAzimuth",
          "type": "uint256"
        },
        {
          "internalType": "string",
          "name": "groupingParam",
          "type": "string"
        },
        {
          "internalType": "string",
          "name": "cbsdAddress",
          "type": "string"
        },
        {
          "internalType": "address",
          "name": "sasOrigin",
          "type": "address"
        },
        {
          "internalType": "uint256",
          "name": "registrationTimestamp",
          "type": "uint256"
        }
      ],
      "stateMutability": "view",
      "type": "function"
    },
    {
      "inputs": [
        {
          "internalType": "string",
          "name": "fccId",
          "type": "string"
        },
        {
          "internalType": "string",
          "name": "cbsdSerialNumber",
          "type": "string"
        }
      ],
      "name": "deregistration",
      "outputs": [],
      "stateMutability": "nonpayable",
      "type": "function"
    },
    {
      "inputs": [
        {
          "components": [
            {
              "internalType": "string",
              "name": "fccId",
              "type": "string"
            },
            {
              "internalType": "string",
              "name": "cbsdSerialNumber",
              "type": "string"
            },
            {
              "internalType": "string",
              "name": "channelType",
              "type": "string"
            },
            {
              "internalType": "uint256",
              "name": "maxEirp",
              "type": "uint256"
            },
            {
              "internalType": "uint256",
              "name": "lowFrequency",
              "type": "uint256"
            },
            {
              "internalType": "uint256",
              "name": "highFrequency",
              "type": "uint256"
            },
            {
              "internalType": "uint256",
              "name": "requestedMaxEirp",
              "type": "uint256"
            },
            {
              "internalType": "uint256",
              "name": "requestedLowFrequency",
              "type": "uint256"
            },
            {
              "internalType": "uint256",
              "name": "requestedHighFrequency",
              "type": "uint256"
            },
            {
              "internalType": "uint256",
              "name": "grantExpireTime",
              "type": "uint256"
            }
          ],
          "internalType": "struct SASSharedRegistry.GrantRequest",
          "name": "req",
          "type": "tuple"
        }
      ],
      "name": "grant",
      "outputs": [],
      "stateMutability": "nonpayable",
      "type": "function"
    },
    {
      "inputs": [
        {
          "internalType": "bytes32",
          "name": "",
          "type": "bytes32"
        },
        {
          "internalType": "uint256",
          "name": "",
          "type": "uint256"
        }
      ],
      "name": "grants",
      "outputs": [
        {
          "internalType": "string",
          "name": "grantId",
          "type": "string"
        },
        {
          "internalType": "string",
          "name": "channelType",
          "type": "string"
        },
        {
          "internalType": "uint256",
          "name": "grantExpireTime",
          "type": "uint256"
        },
        {
          "internalType": "bool",
          "name": "terminated",
          "type": "bool"
        },
        {
          "internalType": "uint256",
          "name": "maxEirp",
          "type": "uint256"
        },
        {
          "internalType": "uint256",
          "name": "lowFrequency",
          "type": "uint256"
        },
        {
          "internalType": "uint256",
          "name": "highFrequency",
          "type": "uint256"
        },
        {
          "internalType": "uint256",
          "name": "requestedMaxEirp",
          "type": "uint256"
        },
        {
          "internalType": "uint256",
          "name": "requestedLowFrequency",
          "type": "uint256"
        },
        {
          "internalType": "uint256",
          "name": "requestedHighFrequency",
          "type": "uint256"
        },
        {
          "internalType": "address",
          "name": "sasOrigin",
          "type": "address"
        },
        {
          "internalType": "uint256",
          "name": "grantTimestamp",
          "type": "uint256"
        }
      ],
      "stateMutability": "view",
      "type": "function"
    },
    {
      "inputs": [],
      "name": "owner",
      "outputs": [
        {
          "internalType": "address",
          "name": "",
          "type": "address"
        }
      ],
      "stateMutability": "view",
      "type": "function"
    },
    {
      "inputs": [
        {
          "components": [
            {
              "internalType": "string",
              "name": "fccId",
              "type": "string"
            },
            {
              "internalType": "string",
              "name": "userId",
              "type": "string"
            },
            {
              "internalType": "string",
              "name": "cbsdSerialNumber",
              "type": "string"
            },
            {
              "internalType": "string",
              "name": "callSign",
              "type": "string"
            },
            {
              "internalType": "string",
              "name": "cbsdCategory",
              "type": "string"
            },
            {
              "internalType": "string",
              "name": "airInterface",
              "type": "string"
            },
            {
              "internalType": "string[]",
              "name": "measCapability",
              "type": "string[]"
            },
            {
              "internalType": "uint256",
              "name": "eirpCapability",
              "type": "uint256"
            },
            {
              "internalType": "int256",
              "name": "latitude",
              "type": "int256"
            },
            {
              "internalType": "int256",
              "name": "longitude",
              "type": "int256"
            },
            {
              "internalType": "uint256",
              "name": "height",
              "type": "uint256"
            },
            {
              "internalType": "string",
              "name": "heightType",
              "type": "string"
            },
            {
              "internalType": "bool",
              "name": "indoorDeployment",
              "type": "bool"
            },
            {
              "internalType": "uint256",
              "name": "antennaGain",
              "type": "uint256"
            },
            {
              "internalType": "uint256",
              "name": "antennaBeamwidth",
              "type": "uint256"
            },
            {
              "internalType": "uint256",
              "name": "antennaAzimuth",
              "type": "uint256"
            },
            {
              "internalType": "string",
              "name": "groupingParam",
              "type": "string"
            },
            {
              "internalType": "string",
              "name": "cbsdAddress",
              "type": "string"
            }
          ],
          "internalType": "struct SASSharedRegistry.RegistrationRequest",
          "name": "req",
          "type": "tuple"
        }
      ],
      "name": "registration",
      "outputs": [],
      "stateMutability": "nonpayable",
      "type": "function"
    },
    {
      "inputs": [
        {
          "internalType": "string",
          "name": "fccId",
          "type": "string"
        },
        {
          "internalType": "string",
          "name": "cbsdSerialNumber",
          "type": "string"
        },
        {
          "internalType": "string",
          "name": "grantId",
          "type": "string"
        }
      ],
      "name": "relinquishment",
      "outputs": [],
      "stateMutability": "nonpayable",
      "type": "function"
    },
    {
      "inputs": [
        {
          "internalType": "address",
          "name": "_sas",
          "type": "address"
        }
      ],
      "name": "revokeSAS",
      "outputs": [],
      "stateMutability": "nonpayable",
      "type": "function"
    },
    {
      "inputs": [],
      "name": "totalCbsds",
      "outputs": [
        {
          "internalType": "uint256",
          "name": "",
          "type": "uint256"
        }
      ],
      "stateMutability": "view",
      "type": "function"
    },
    {
      "inputs": [],
      "name": "totalGrants",
      "outputs": [
        {
          "internalType": "uint256",
          "name": "",
          "type": "uint256"
        }
      ],
      "stateMutability": "view",
      "type": "function"
    }
  ],
  "bytecode": "0x608080604052346065573360018060a01b031960005416176000553360005260016020526040600020600160ff19825416179055337ff9253a470d3ac8ce6a7c7c4d5b1bea05e7a79ab2de6a49027ddb5e842f1e7a33600080a2611b32908161006b8239f35b600080fdfe610140604052600436101561001357600080fd5b60003560e01c80630de0ae0f14610d295780630fa32be914610cc357806378abb6d914610bce5780638da5cb5b14610ba5578063979a368e14610995578063a2e592e71461077c578063b03776ca14610739578063c5e186331461055e578063d9211be814610540578063de8d6f8514610522578063e773e043146104bf5763e89ecd72146100a157600080fd5b346104ba5760203660031901126104ba576004356001600160401b0381116104ba578060040161014060031983360301126104ba576101156020926100e68380611963565b929061010f60248401946101076100fd8789611963565b94909236916118ff565b9236916118ff565b90611ab1565b806000526002855261013561012e6040600020546117b8565b1515611a4f565b6101976101428580611963565b969060266101508789611963565b866000939293526003855260406000205492818c6040519d8e97656772616e745f60d01b8a8a015286890137860191848301600081523701019081520380885201866117f2565b80600052600360205260406000208054600160401b81101561041f576101c291600182018155611786565b50506000908152600360205260409020805460001981019081116104a4576101e991611786565b509084516001600160401b03811161041f5761020f8161020985546117b8565b856119ac565b6020601f821160011461044057908061023e92600091610435575b508160011b916000199060031b1c19161790565b82555b61024e6044820185611963565b60018401916001600160401b03821161041f5761026f8261020985546117b8565b600090601f83116001146103b65791806102a6926101049695946000926103ab575b50508160011b916000199060031b1c19161790565b90555b61012481013560028401556003830160ff198154169055606481013560048401556084810135600584015560a4810135600684015560c4810135600784015560e4810135600884015501356009820155600a810160018060a01b0333166bffffffffffffffffffffffff60a01b825416179055600b4291015561032d600554611a40565b60055561034561033d8380611963565b929093611963565b91909281604051928392833781016000815203902091816040519283928337810160008152039020907f329c3dac258de228876dc5e4f52e5477d35a7d0c99205ece9a8ab33093cdad0f60405160208152806103a6339660208301906118da565b0390a4005b013590503880610291565b8382526020822091601f198416815b818110610407575091600193918561010498979694106103ed575b505050811b0190556102a9565b0135600019600384901b60f8161c191690553880806103e0565b919360206001819287870135815501950192016103c5565b634e487b7160e01b600052604160045260246000fd5b90508701513861022a565b601f1982169084600052806000209160005b81811061048c57509083600194939210610473575b5050811b018255610241565b88015160001960f88460031b161c191690553880610467565b9192602060018192868d015181550194019201610452565b634e487b7160e01b600052601160045260246000fd5b600080fd5b346104ba5760203660031901126104ba576004356001600160a01b038116908190036104ba57806000526001602052604060002060ff1981541690557f2c1e02fb47e9d84e471ccc6d02067a9583b0a4a2381dd618b21364f0e9402987600080a2005b346104ba5760003660031901126104ba576020600454604051908152f35b346104ba5760003660031901126104ba576020600554604051908152f35b346104ba5760603660031901126104ba576004356001600160401b0381116104ba5761058e903690600401611945565b6024356001600160401b0381116104ba576105ad903690600401611945565b906044356001600160401b0381116104ba576105cd903690600401611945565b916105d88183611ab1565b8060005260026020526105f261012e6040600020546117b8565b600052600360205260406000209160009260208501935b81548110156107375761061c8183611786565b5060405181549181600061062f856117b8565b92838352602083019560018116908160001461071857506001146106d6575b5061065b925003826117f2565b519020865186201461066f57600101610609565b61069d9394506106856003916106979493611786565b5001805460ff19166001179055611a91565b91611a91565b907f544c6f09ee1b67e675df5697fb3434a95bed263c7cfd8e8ecb28de5075b6e62b60405160208152806103a6339660208301906118da565b9150506000526020600020906000915b8183106106ff57505081602061065b928201018b61064e565b80546020848601810191909152909201916001016106e6565b60ff191687525061065b93151560051b830160200191508c905061064e565b005b346104ba5760203660031901126104ba576004356001600160a01b038116908190036104ba576000526001602052602060ff604060002054166040519015158152f35b346104ba5760203660031901126104ba57600435600052600260205260406000206107a681611813565b6107b260018301611813565b610100526107c260028301611813565b61012052816107d360038201611813565b916107e060048301611813565b926107ed60058401611813565b600784015460088501546009860154600a8701549161080e600b8901611813565b94600c89015460ff1699600d8a015497600e8b015499600f8c01549b60100161083690611813565b9d61084360118201611813565b60805260128101546001600160a01b031660e0526013015460a05260405160c0818152610260918290525161087a929101906118da565b60c051810360c051602001526101005190610894916118da565b60c051810360c0516040015261012051906108ae916118da565b60c051810360c051606001526108c3916118da565b60c051810360c051608001526108d8916118da565b60c051810360c05160a001526108ed916118da565b9360c05160c0015260c05160e0015260c051610100015260c051610120015260c051810360c0516101400152610922916118da565b93151560c051610160015260c051610180015260c0516101a0015260c0516101c0015260c051810360c0516101e0015261095b916118da565b60c051810360c051610200015260805190610975916118da565b60e05160c051610220015260a05160c051610240015260c051900360c051f35b346104ba5760403660031901126104ba576004356001600160401b0381116104ba576109c5903690600401611945565b602435906001600160401b0382116104ba5761010f6109e8923690600401611945565b806000526002602052610a0261012e6040600020546117b8565b8060005260026020526040600020610a19816119f1565b610a25600182016119f1565b610a31600282016119f1565b610a3d600382016119f1565b610a49600482016119f1565b610a55600582016119f1565b600681018054906000815581610b7e575b5050601360009182600782015582600882015582600982015582600a820155610a91600b82016119f1565b82600c82015582600d82015582600e82015582600f820155610ab5601082016119f1565b610ac1601182016119f1565b8260128201550155600052600360205260406000208054906000815581610af7575b505060045480156104a45760001901600455005b81600c0291600c8304036104a4576000526020600020908101905b81811015610ae35780610b26600c926119f1565b610b32600182016119f1565b60006002820155600060038201556000600482015560006005820155600060068201556000600782015560006008820155600060098201556000600a8201556000600b82015501610b12565b6000526020600020908101905b81811015610a665780610b9f6001926119f1565b01610b8b565b346104ba5760003660031901126104ba576000546040516001600160a01b039091168152602090f35b346104ba5760403660031901126104ba57602435600435600052600360205260406000209081548110156104ba57610c0591611786565b50610180610c1282611813565b91610c1f60018201611813565b60028201549160ff600382015416600482015460058301546006840154600785015491600886015493600987015495610c86600b60018060a01b03600a8b01541699015499610c786040519e8f9e8f81815201906118da565b8d810360208f0152906118da565b9960408c0152151560608b015260808a015260a089015260c088015260e08701526101008601526101208501526101408401526101608301520390f35b346104ba5760203660031901126104ba576004356001600160a01b038116908190036104ba578060005260016020526040600020600160ff198254161790557ff9253a470d3ac8ce6a7c7c4d5b1bea05e7a79ab2de6a49027ddb5e842f1e7a33600080a2005b346104ba5760203660031901126104ba576004356001600160401b0381116104ba5780600401908036036102406003198201126104ba57610d8591610d6e8480611963565b939061010f60448401956101076100fd888a611963565b806000526002602052610d9c6040600020546117b8565b61174b576000526002602052604060002091610db88580611963565b906001600160401b03821161041f57610ddb82610dd587546117b8565b876119ac565b600090601f83116001146116e757610e0b9291600091836113615750508160011b916000199060031b1c19161790565b83555b610e1b6024830186611963565b60018501916001600160401b03821161041f57610e3c8261020985546117b8565b600090601f831160011461168357610e6c9291600091836114e85750508160011b916000199060031b1c19161790565b90555b610e798486611963565b60028501916001600160401b03821161041f57610e9a8261020985546117b8565b600090601f831160011461161f57610eca9291600091836114e85750508160011b916000199060031b1c19161790565b90555b610eda6064830186611963565b60038501916001600160401b03821161041f57610efb8261020985546117b8565b600090601f83116001146115bb57610f2b9291600091836114e85750508160011b916000199060031b1c19161790565b90555b610f3b6084830186611963565b60048501916001600160401b03821161041f57610f5c8261020985546117b8565b600090601f831160011461155757610f8c9291600091836114e85750508160011b916000199060031b1c19161790565b90555b610f9c60a4830186611963565b60058501916001600160401b03821161041f57610fbd8261020985546117b8565b600090601f83116001146114f357610fed9291600091836114e85750508160011b916000199060031b1c19161790565b90555b60c482013590602219018112156104ba5781016004810135906001600160401b0382116104ba57602401908060051b360382136104ba576006840191600160401b821161041f5782548284558083106114b9575b506000928352602083209290805b8383106113d057505050505060e4810135600783015561010481013560088301556101248101356009830155610144810135600a830155611097610164820185611963565b600b8401916001600160401b03821161041f576110b88261020985546117b8565b600090601f831160011461136c576110e89291600091836113615750508160011b916000199060031b1c19161790565b90555b6101848101358015158091036104ba57600c83019060ff801983541691161790556101a4810135600d8301556101c4810135600e8301556101e4810135600f83015561113b610204820185611963565b60108401916001600160401b03821161041f5761115c8261020985546117b8565b600090601f83116001146112f5578261119f95936102249593611195936000926112ea5750508160011b916000199060031b1c19161790565b90555b0184611963565b60118301916001600160401b03821161041f576111c08261020985546117b8565b600090601f8311600114611286576111f092916000918361127b5750508160011b916000199060031b1c19161790565b90555b6012810180546001600160a01b031916331790554260139091015560045461121a90611a40565b60045561122a61033d8380611963565b9190928160405192839283378101600081520390209181604051928392833781016000815203902033917fa0dadc79a900797935f24d266e98b64b68e7aedd412001ece19e875b04a3b865600080a4005b013590508780610291565b8382526020822091601f198416815b8181106112d257509084600195949392106112b8575b505050811b0190556111f3565b0135600019600384901b60f8161c191690558680806112ab565b91936020600181928787013581550195019201611295565b013590508a80610291565b8382526020822091601f198416815b818110611349575092600192859261119f989661022498961061132f575b505050811b019055611198565b0135600019600384901b60f8161c19169055898080611322565b91936020600181928787013581550195019201611304565b013590508880610291565b8382526020822091601f198416815b8181106113b8575090846001959493921061139e575b505050811b0190556110eb565b0135600019600384901b60f8161c19169055878080611391565b9193602060018192878701358155019501920161137b565b6113da8183611963565b906001600160401b03821161041f576113fd826113f789546117b8565b896119ac565b600090601f831160011461144f5792611435836001959460209487966000926114445750508160011b916000199060031b1c19161790565b88555b01950192019193611052565b013590508f80610291565b8782526020822091601f198416815b8181106114a15750936020936001969387969383889510611487575b505050811b018855611438565b0135600019600384901b60f8161c191690558e808061147a565b9193602060018192878701358155019501920161145e565b8360005282602060002091820191015b8181106114d65750611044565b806114e26001926119f1565b016114c9565b013590508980610291565b8382526020822091601f198416815b81811061153f5750908460019594939210611525575b505050811b019055610ff0565b0135600019600384901b60f8161c19169055888080611518565b91936020600181928787013581550195019201611502565b8382526020822091601f198416815b8181106115a35750908460019594939210611589575b505050811b019055610f8f565b0135600019600384901b60f8161c1916905588808061157c565b91936020600181928787013581550195019201611566565b8382526020822091601f198416815b81811061160757509084600195949392106115ed575b505050811b019055610f2e565b0135600019600384901b60f8161c191690558880806115e0565b919360206001819287870135815501950192016115ca565b8382526020822091601f198416815b81811061166b5750908460019594939210611651575b505050811b019055610ecd565b0135600019600384901b60f8161c19169055888080611644565b9193602060018192878701358155019501920161162e565b8382526020822091601f198416815b8181106116cf57509084600195949392106116b5575b505050811b019055610e6f565b0135600019600384901b60f8161c191690558880806116a8565b91936020600181928787013581550195019201611692565b8582526020822091601f198416815b8181106117335750908460019594939210611719575b505050811b018355610e0e565b0135600019600384901b60f8161c1916905587808061170c565b919360206001819287870135815501950192016116f6565b60405162461bcd60e51b81526020600482015260136024820152724342534420616c72656164792065786973747360681b6044820152606490fd5b80548210156117a257600052600c602060002091020190600090565b634e487b7160e01b600052603260045260246000fd5b90600182811c921680156117e8575b60208310146117d257565b634e487b7160e01b600052602260045260246000fd5b91607f16916117c7565b90601f801991011681019081106001600160401b0382111761041f57604052565b9060405191826000825492611827846117b8565b8084529360018116908115611895575060011461184e575b5061184c925003836117f2565b565b90506000929192526020600020906000915b81831061187957505090602061184c928201013861183f565b6020919350806001915483858901015201910190918492611860565b90506020925061184c94915060ff191682840152151560051b8201013861183f565b60005b8381106118ca5750506000910152565b81810151838201526020016118ba565b906020916118f3815180928185528580860191016118b7565b601f01601f1916010190565b9291926001600160401b03821161041f5760405191611928601f8201601f1916602001846117f2565b8294818452818301116104ba578281602093846000960137010152565b9080601f830112156104ba57816020611960933591016118ff565b90565b903590601e19813603018212156104ba57018035906001600160401b0382116104ba576020019181360383136104ba57565b8181106119a0575050565b60008155600101611995565b9190601f81116119bb57505050565b61184c926000526020600020906020601f840160051c830193106119e7575b601f0160051c0190611995565b90915081906119da565b6119fb81546117b8565b9081611a05575050565b81601f60009311600114611a17575055565b81835260208320611a3391601f0160051c810190600101611995565b8082528160208120915555565b60001981146104a45760010190565b15611a5657565b60405162461bcd60e51b815260206004820152601360248201527210d094d1081b9bdd081c9959da5cdd195c9959606a1b6044820152606490fd5b611aa9906020604051928284809451938492016118b7565b810103902090565b90611af660209160405192839181611ad281850197888151938492016118b7565b8301611ae6825180938580850191016118b7565b010103601f1981018352826117f2565b5190209056fea26469706673582212205cecf1d3a7aed276fd8c22c75025b4135fc6ada5e5d6cce597dc92e2313d100c64736f6c634300081c0033",
  "linkReferences": {},
  "deployedLinkReferences": {}
}