{
  "_format": "hh-sol-artifact-1",
  "contractName": "SASSharedRegistry",
  "sourceName": "contracts/SASSharedRegistry.sol",
  "abi": [
    {
      "inputs": [],
      "stateMutability": "nonpayable",
      "type": "constructor"
    },
    {
      "anonymous": false,
      "inputs": [
        {
          "indexed": true,
          "internalType": "uint256",
          "name": "cbsdId",
          "type": "uint256"
        },
        {
          "indexed": true,
          "internalType": "address",
          "name": "sasOrigin",
          "type": "address"
        }
      ],
      "name": "CBSDRegistered",
      "type": "event"
    },
    {
      "anonymous": false,
      "inputs": [
        {
          "indexed": true,
          "internalType": "uint256",
          "name": "cbsdId",
          "type": "uint256"
        },
        {
          "indexed": false,
          "internalType": "uint256",
          "name": "newGrantAmount",
          "type": "uint256"
        },
        {
          "indexed": true,
          "internalType": "address",
          "name": "sasOrigin",
          "type": "address"
        }
      ],
      "name": "GrantAmountUpdated",
      "type": "event"
    },
    {
      "anonymous": false,
      "inputs": [
        {
          "indexed": true,
          "internalType": "uint256",
          "name": "cbsdId",
          "type": "uint256"
        },
        {
          "indexed": false,
          "internalType": "uint256",
          "name": "frequencyHz",
          "type": "uint256"
        },
        {
          "indexed": false,
          "internalType": "uint256",
          "name": "bandwidthHz",
          "type": "uint256"
        },
        {
          "indexed": false,
          "internalType": "uint256",
          "name": "expiryTimestamp",
          "type": "uint256"
        },
        {
          "indexed": true,
          "internalType": "address",
          "name": "sasOrigin",
          "type": "address"
        }
      ],
      "name": "GrantDetailsUpdated",
      "type": "event"
    },
    {
      "anonymous": false,
      "inputs": [
        {
          "indexed": true,
          "internalType": "address",
          "name": "sas",
          "type": "address"
        }
      ],
      "name": "SASAuthorized",
      "type": "event"
    },
    {
      "anonymous": false,
      "inputs": [
        {
          "indexed": true,
          "internalType": "address",
          "name": "sas",
          "type": "address"
        }
      ],
      "name": "SASRevoked",
      "type": "event"
    },
    {
      "anonymous": false,
      "inputs": [
        {
          "indexed": true,
          "internalType": "uint256",
          "name": "cbsdId",
          "type": "uint256"
        },
        {
          "indexed": false,
          "internalType": "string",
          "name": "newStatus",
          "type": "string"
        },
        {
          "indexed": true,
          "internalType": "address",
          "name": "sasOrigin",
          "type": "address"
        }
      ],
      "name": "StatusUpdated",
      "type": "event"
    },
    {
      "inputs": [
        {
          "internalType": "address",
          "name": "_sas",
          "type": "address"
        }
      ],
      "name": "authorizeSAS",
      "outputs": [],
      "stateMutability": "nonpayable",
      "type": "function"
    },
    {
      "inputs": [
        {
          "internalType": "address",
          "name": "",
          "type": "address"
        }
      ],
      "name": "authorizedSAS",
      "outputs": [
        {
          "internalType": "bool",
          "name": "",
          "type": "bool"
        }
      ],
      "stateMutability": "view",
      "type": "function"
    },
    {
      "inputs": [
        {
          "internalType": "uint256",
          "name": "",
          "type": "uint256"
        }
      ],
      "name": "cbsds",
      "outputs": [
        {
          "internalType": "uint256",
          "name": "id",
          "type": "uint256"
        },
        {
          "internalType": "address",
          "name": "cbsdAddress",
          "type": "address"
        },
        {
          "internalType": "uint256",
          "name": "grantAmount",
          "type": "uint256"
        },
        {
          "internalType": "string",
          "name": "status",
          "type": "string"
        },
        {
          "internalType": "uint256",
          "name": "frequencyHz",
          "type": "uint256"
        },
        {
          "internalType": "uint256",
          "name": "bandwidthHz",
          "type": "uint256"
        },
        {
          "internalType": "uint256",
          "name": "expiryTimestamp",
          "type": "uint256"
        },
        {
          "internalType": "address",
          "name": "sasOrigin",
          "type": "address"
        }
      ],
      "stateMutability": "view",
      "type": "function"
    },
    {
      "inputs": [
        {
          "internalType": "uint256",
          "name": "_id",
          "type": "uint256"
        }
      ],
      "name": "getCBSDInfo",
      "outputs": [
        {
          "internalType": "address",
          "name": "cbsdAddress",
          "type": "address"
        },
        {
          "internalType": "uint256",
          "name": "grantAmount",
          "type": "uint256"
        },
        {
          "internalType": "string",
          "name": "status",
          "type": "string"
        },
        {
          "internalType": "uint256",
          "name": "frequencyHz",
          "type": "uint256"
        },
        {
          "internalType": "uint256",
          "name": "bandwidthHz",
          "type": "uint256"
        },
        {
          "internalType": "uint256",
          "name": "expiryTimestamp",
          "type": "uint256"
        },
        {
          "internalType": "address",
          "name": "sasOrigin",
          "type": "address"
        }
      ],
      "stateMutability": "view",
      "type": "function"
    },
    {
      "inputs": [
        {
          "internalType": "uint256",
          "name": "_id",
          "type": "uint256"
        }
      ],
      "name": "isActive",
      "outputs": [
        {
          "internalType": "bool",
          "name": "",
          "type": "bool"
        }
      ],
      "stateMutability": "view",
      "type": "function"
    },
    {
      "inputs": [],
      "name": "owner",
      "outputs": [
        {
          "internalType": "address",
          "name": "",
          "type": "address"
        }
      ],
      "stateMutability": "view",
      "type": "function"
    },
    {
      "inputs": [
        {
          "internalType": "uint256",
          "name": "_id",
          "type": "uint256"
        },
        {
          "internalType": "address",
          "name": "_cbsdAddress",
          "type": "address"
        },
        {
          "internalType": "uint256",
          "name": "_grantAmount",
          "type": "uint256"
        },
        {
          "internalType": "uint256",
          "name": "_frequencyHz",
          "type": "uint256"
        },
        {
          "internalType": "uint256",
          "name": "_bandwidthHz",
          "type": "uint256"
        },
        {
          "internalType": "uint256",
          "name": "_expiryTimestamp",
          "type": "uint256"
        }
      ],
      "name": "registerCBSD",
      "outputs": [],
      "stateMutability": "nonpayable",
      "type": "function"
    },
    {
      "inputs": [
        {
          "internalType": "address",
          "name": "_sas",
          "type": "address"
        }
      ],
      "name": "revokeSAS",
      "outputs": [],
      "stateMutability": "nonpayable",
      "type": "function"
    },
    {
      "inputs": [
        {
          "internalType": "uint256",
          "name": "_id",
          "type": "uint256"
        },
        {
          "internalType": "uint256",
          "name": "_newGrantAmount",
          "type": "uint256"
        }
      ],
      "name": "updateGrantAmount",
      "outputs": [],
      "stateMutability": "nonpayable",
      "type": "function"
    },
    {
      "inputs": [
        {
          "internalType": "uint256",
          "name": "_id",
          "type": "uint256"
        },
        {
          "internalType": "uint256",
          "name": "_frequencyHz",
          "type": "uint256"
        },
        {
          "internalType": "uint256",
          "name": "_bandwidthHz",
          "type": "uint256"
        },
        {
          "internalType": "uint256",
          "name": "_expiryTimestamp",
          "type": "uint256"
        }
      ],
      "name": "updateGrantDetails",
      "outputs": [],
      "stateMutability": "nonpayable",
      "type": "function"
    },
    {
      "inputs": [
        {
          "internalType": "uint256",
          "name": "_id",
          "type": "uint256"
        },
        {
          "internalType": "string",
          "name": "_newStatus",
          "type": "string"
        }
      ],
      "name": "updateStatus",
      "outputs": [],
      "stateMutability": "nonpayable",
      "type": "function"
    }
  ],
  "bytecode": "0x6080604052348015600f57600080fd5b50336000806101000a81548173ffffffffffffffffffffffffffffffffffffffff021916908373ffffffffffffffffffffffffffffffffffffffff16021790555060018060003373ffffffffffffffffffffffffffffffffffffffff1673ffffffffffffffffffffffffffffffffffffffff16815260200190815260200160002060006101000a81548160ff0219169083151502179055503373ffffffffffffffffffffffffffffffffffffffff167ff9253a470d3ac8ce6a7c7c4d5b1bea05e7a79ab2de6a49027ddb5e842f1e7a3360405160405180910390a2611c87806100f96000396000f3fe608060405234801561001057600080fd5b50600436106100a95760003560e01c806382afd23b1161007157806382afd23b1461016f5780638da5cb5b1461019f578063a27f19ac146101bd578063b03776ca146101d9578063d1b34dd814610209578063e773e04314610225576100a9565b80630fa32be9146100ae57806347445172146100ca57806348465c681461010057806373357f6b1461013757806374e2bc3c14610153575b600080fd5b6100c860048036038101906100c39190611184565b610241565b005b6100e460048036038101906100df91906111e7565b61036c565b6040516100f797969594939291906112c2565b60405180910390f35b61011a600480360381019061011591906111e7565b610547565b60405161012e989796959493929190611338565b60405180910390f35b610151600480360381019061014c91906113bd565b610657565b005b61016d600480360381019061016891906113fd565b6107f3565b005b610189600480360381019061018491906111e7565b6109a7565b604051610196919061147f565b60405180910390f35b6101a7610b4a565b6040516101b4919061149a565b60405180910390f35b6101d760048036038101906101d291906114b5565b610b6e565b005b6101f360048036038101906101ee9190611184565b610e26565b604051610200919061147f565b60405180910390f35b610223600480360381019061021e91906115a7565b610e46565b005b61023f600480360381019061023a9190611184565b610ff0565b005b60008054906101000a900473ffffffffffffffffffffffffffffffffffffffff1673ffffffffffffffffffffffffffffffffffffffff163373ffffffffffffffffffffffffffffffffffffffff16146102cf576040517f08c379a00000000000000000000000000000000000000000000000000000000081526004016102c690611653565b60405180910390fd5b60018060008373ffffffffffffffffffffffffffffffffffffffff1673ffffffffffffffffffffffffffffffffffffffff16815260200190815260200160002060006101000a81548160ff0219169083151502179055508073ffffffffffffffffffffffffffffffffffffffff167ff9253a470d3ac8ce6a7c7c4d5b1bea05e7a79ab2de6a49027ddb5e842f1e7a3360405160405180910390a250565b60008060606000806000806000600260008a815260200190815260200160002060405180610100016040529081600082015481526020016001820160009054906101000a900473ffffffffffffffffffffffffffffffffffffffff1673ffffffffffffffffffffffffffffffffffffffff1673ffffffffffffffffffffffffffffffffffffffff16815260200160028201548152602001600382018054610412906116a2565b80601f016020809104026020016040519081016040528092919081815260200182805461043e906116a2565b801561048b5780601f106104605761010080835404028352916020019161048b565b820191906000526020600020905b81548152906001019060200180831161046e57829003601f168201915b505050505081526020016004820154815260200160058201548152602001600682015481526020016007820160009054906101000a900473ffffffffffffffffffffffffffffffffffffffff1673ffffffffffffffffffffffffffffffffffffffff1673ffffffffffffffffffffffffffffffffffffffff1681525050905080602001518160400151826060015183608001518460a001518560c001518660e00151975097509750975097509750975050919395979092949650565b60026020528060005260406000206000915090508060000154908060010160009054906101000a900473ffffffffffffffffffffffffffffffffffffffff169080600201549080600301805461059c906116a2565b80601f01602080910402602001604051908101604052809291908181526020018280546105c8906116a2565b80156106155780601f106105ea57610100808354040283529160200191610615565b820191906000526020600020905b8154815290600101906020018083116105f857829003601f168201915b5050505050908060040154908060050154908060060154908060070160009054906101000a900473ffffffffffffffffffffffffffffffffffffffff16905088565b600160003373ffffffffffffffffffffffffffffffffffffffff1673ffffffffffffffffffffffffffffffffffffffff16815260200190815260200160002060009054906101000a900460ff166106e3576040517f08c379a00000000000000000000000000000000000000000000000000000000081526004016106da9061171f565b60405180910390fd5b600060026000848152602001908152602001600020600001540361073c576040517f08c379a00000000000000000000000000000000000000000000000000000000081526004016107339061178b565b60405180910390fd5b6000600260008481526020019081526020016000209050818160020181905550338160070160006101000a81548173ffffffffffffffffffffffffffffffffffffffff021916908373ffffffffffffffffffffffffffffffffffffffff1602179055503373ffffffffffffffffffffffffffffffffffffffff16837fbdff5506f03f31563796f7d709179c546b3230e9cf56573345be90fa21e7b611846040516107e691906117ab565b60405180910390a3505050565b600160003373ffffffffffffffffffffffffffffffffffffffff1673ffffffffffffffffffffffffffffffffffffffff16815260200190815260200160002060009054906101000a900460ff1661087f576040517f08c379a00000000000000000000000000000000000000000000000000000000081526004016108769061171f565b60405180910390fd5b60006002600086815260200190815260200160002060000154036108d8576040517f08c379a00000000000000000000000000000000000000000000000000000000081526004016108cf9061178b565b60405180910390fd5b6000600260008681526020019081526020016000209050838160040181905550828160050181905550818160060181905550338160070160006101000a81548173ffffffffffffffffffffffffffffffffffffffff021916908373ffffffffffffffffffffffffffffffffffffffff1602179055503373ffffffffffffffffffffffffffffffffffffffff16857fc74218ffa8b838ef25e1efe8b95d1a4eb10a31e07c3536438a6a9dfebdd2cac8868686604051610998939291906117c6565b60405180910390a35050505050565b6000806002600084815260200190815260200160002060405180610100016040529081600082015481526020016001820160009054906101000a900473ffffffffffffffffffffffffffffffffffffffff1673ffffffffffffffffffffffffffffffffffffffff1673ffffffffffffffffffffffffffffffffffffffff16815260200160028201548152602001600382018054610a43906116a2565b80601f0160208091040260200160405190810160405280929190818152602001828054610a6f906116a2565b8015610abc5780601f10610a9157610100808354040283529160200191610abc565b820191906000526020600020905b815481529060010190602001808311610a9f57829003601f168201915b505050505081526020016004820154815260200160058201548152602001600682015481526020016007820160009054906101000a900473ffffffffffffffffffffffffffffffffffffffff1673ffffffffffffffffffffffffffffffffffffffff1673ffffffffffffffffffffffffffffffffffffffff168152505090508060c001514210915050919050565b60008054906101000a900473ffffffffffffffffffffffffffffffffffffffff1681565b600160003373ffffffffffffffffffffffffffffffffffffffff1673ffffffffffffffffffffffffffffffffffffffff16815260200190815260200160002060009054906101000a900460ff16610bfa576040517f08c379a0000000000000000000000000000000000000000000000000000000008152600401610bf19061171f565b60405180910390fd5b6000600260008881526020019081526020016000206000015414610c53576040517f08c379a0000000000000000000000000000000000000000000000000000000008152600401610c4a90611849565b60405180910390fd5b6040518061010001604052808781526020018673ffffffffffffffffffffffffffffffffffffffff1681526020018581526020016040518060400160405280600a81526020017f726567697374657265640000000000000000000000000000000000000000000081525081526020018481526020018381526020018281526020013373ffffffffffffffffffffffffffffffffffffffff16815250600260008881526020019081526020016000206000820151816000015560208201518160010160006101000a81548173ffffffffffffffffffffffffffffffffffffffff021916908373ffffffffffffffffffffffffffffffffffffffff160217905550604082015181600201556060820151816003019081610d719190611a44565b506080820151816004015560a0820151816005015560c0820151816006015560e08201518160070160006101000a81548173ffffffffffffffffffffffffffffffffffffffff021916908373ffffffffffffffffffffffffffffffffffffffff1602179055509050503373ffffffffffffffffffffffffffffffffffffffff16867f6a09f41e2dc41f3ff5277c308accb839215e4d3634264099551cf6ed9457777c60405160405180910390a3505050505050565b60016020528060005260406000206000915054906101000a900460ff1681565b600160003373ffffffffffffffffffffffffffffffffffffffff1673ffffffffffffffffffffffffffffffffffffffff16815260200190815260200160002060009054906101000a900460ff16610ed2576040517f08c379a0000000000000000000000000000000000000000000000000000000008152600401610ec99061171f565b60405180910390fd5b6000600260008581526020019081526020016000206000015403610f2b576040517f08c379a0000000000000000000000000000000000000000000000000000000008152600401610f229061178b565b60405180910390fd5b60006002600085815260200190815260200160002090508282826003019182610f55929190611b21565b50338160070160006101000a81548173ffffffffffffffffffffffffffffffffffffffff021916908373ffffffffffffffffffffffffffffffffffffffff1602179055503373ffffffffffffffffffffffffffffffffffffffff16847fb31680dc3c78d78b7d637e5735ddaae9faedb88cc90e5e3e03188e394430fa308585604051610fe2929190611c2d565b60405180910390a350505050565b60008054906101000a900473ffffffffffffffffffffffffffffffffffffffff1673ffffffffffffffffffffffffffffffffffffffff163373ffffffffffffffffffffffffffffffffffffffff161461107e576040517f08c379a000000000000000000000000000000000000000000000000000000000815260040161107590611653565b60405180910390fd5b6000600160008373ffffffffffffffffffffffffffffffffffffffff1673ffffffffffffffffffffffffffffffffffffffff16815260200190815260200160002060006101000a81548160ff0219169083151502179055508073ffffffffffffffffffffffffffffffffffffffff167f2c1e02fb47e9d84e471ccc6d02067a9583b0a4a2381dd618b21364f0e940298760405160405180910390a250565b600080fd5b600080fd5b600073ffffffffffffffffffffffffffffffffffffffff82169050919050565b600061115182611126565b9050919050565b61116181611146565b811461116c57600080fd5b50565b60008135905061117e81611158565b92915050565b60006020828403121561119a5761119961111c565b5b60006111a88482850161116f565b91505092915050565b6000819050919050565b6111c4816111b1565b81146111cf57600080fd5b50565b6000813590506111e1816111bb565b92915050565b6000602082840312156111fd576111fc61111c565b5b600061120b848285016111d2565b91505092915050565b61121d81611146565b82525050565b61122c816111b1565b82525050565b600081519050919050565b600082825260208201905092915050565b60005b8381101561126c578082015181840152602081019050611251565b60008484015250505050565b6000601f19601f8301169050919050565b600061129482611232565b61129e818561123d565b93506112ae81856020860161124e565b6112b781611278565b840191505092915050565b600060e0820190506112d7600083018a611214565b6112e46020830189611223565b81810360408301526112f68188611289565b90506113056060830187611223565b6113126080830186611223565b61131f60a0830185611223565b61132c60c0830184611214565b98975050505050505050565b60006101008201905061134e600083018b611223565b61135b602083018a611214565b6113686040830189611223565b818103606083015261137a8188611289565b90506113896080830187611223565b61139660a0830186611223565b6113a360c0830185611223565b6113b060e0830184611214565b9998505050505050505050565b600080604083850312156113d4576113d361111c565b5b60006113e2858286016111d2565b92505060206113f3858286016111d2565b9150509250929050565b600080600080608085870312156114175761141661111c565b5b6000611425878288016111d2565b9450506020611436878288016111d2565b9350506040611447878288016111d2565b9250506060611458878288016111d2565b91505092959194509250565b60008115159050919050565b61147981611464565b82525050565b60006020820190506114946000830184611470565b92915050565b60006020820190506114af6000830184611214565b92915050565b60008060008060008060c087890312156114d2576114d161111c565b5b60006114e089828a016111d2565b96505060206114f189828a0161116f565b955050604061150289828a016111d2565b945050606061151389828a016111d2565b935050608061152489828a016111d2565b92505060a061153589828a016111d2565b9150509295509295509295565b600080fd5b600080fd5b600080fd5b60008083601f84011261156757611566611542565b5b8235905067ffffffffffffffff81111561158457611583611547565b5b6020830191508360018202830111156115a05761159f61154c565b5b9250929050565b6000806000604084860312156115c0576115bf61111c565b5b60006115ce868287016111d2565b935050602084013567ffffffffffffffff8111156115ef576115ee611121565b5b6115fb86828701611551565b92509250509250925092565b7f4e6f7420617574686f72697a6564000000000000000000000000000000000000600082015250565b600061163d600e8361123d565b915061164882611607565b602082019050919050565b6000602082019050818103600083015261166c81611630565b9050919050565b7f4e487b7100000000000000000000000000000000000000000000000000000000600052602260045260246000fd5b600060028204905060018216806116ba57607f821691505b6020821081036116cd576116cc611673565b5b50919050565b7f4e6f7420616e20617574686f72697a6564205341530000000000000000000000600082015250565b600061170960158361123d565b9150611714826116d3565b602082019050919050565b60006020820190508181036000830152611738816116fc565b9050919050565b7f43425344206e6f74207265676973746572656400000000000000000000000000600082015250565b600061177560138361123d565b91506117808261173f565b602082019050919050565b600060208201905081810360008301526117a481611768565b9050919050565b60006020820190506117c06000830184611223565b92915050565b60006060820190506117db6000830186611223565b6117e86020830185611223565b6117f56040830184611223565b949350505050565b7f4342534420616c72656164792065786973747300000000000000000000000000600082015250565b600061183360138361123d565b915061183e826117fd565b602082019050919050565b6000602082019050818103600083015261186281611826565b9050919050565b7f4e487b7100000000000000000000000000000000000000000000000000000000600052604160045260246000fd5b60008190508160005260206000209050919050565b60006020601f8301049050919050565b600082821b905092915050565b6000600883026118fa7fffffffffffffffffffffffffffffffffffffffffffffffffffffffffffffffff826118bd565b61190486836118bd565b95508019841693508086168417925050509392505050565b6000819050919050565b600061194161193c611937846111b1565b61191c565b6111b1565b9050919050565b6000819050919050565b61195b83611926565b61196f61196782611948565b8484546118ca565b825550505050565b600090565b611984611977565b61198f818484611952565b505050565b5b818110156119b3576119a860008261197c565b600181019050611995565b5050565b601f8211156119f8576119c981611898565b6119d2846118ad565b810160208510156119e1578190505b6119f56119ed856118ad565b830182611994565b50505b505050565b600082821c905092915050565b6000611a1b600019846008026119fd565b1980831691505092915050565b6000611a348383611a0a565b9150826002028217905092915050565b611a4d82611232565b67ffffffffffffffff811115611a6657611a65611869565b5b611a7082546116a2565b611a7b8282856119b7565b600060209050601f831160018114611aae5760008415611a9c578287015190505b611aa68582611a28565b865550611b0e565b601f198416611abc86611898565b60005b82811015611ae457848901518255600182019150602085019450602081019050611abf565b86831015611b015784890151611afd601f891682611a0a565b8355505b6001600288020188555050505b505050505050565b600082905092915050565b611b2b8383611b16565b67ffffffffffffffff811115611b4457611b43611869565b5b611b4e82546116a2565b611b598282856119b7565b6000601f831160018114611b885760008415611b76578287013590505b611b808582611a28565b865550611be8565b601f198416611b9686611898565b60005b82811015611bbe57848901358255600182019150602085019450602081019050611b99565b86831015611bdb5784890135611bd7601f891682611a0a565b8355505b6001600288020188555050505b50505050505050565b82818337600083830152505050565b6000611c0c838561123d565b9350611c19838584611bf1565b611c2283611278565b840190509392505050565b60006020820190508181036000830152611c48818486611c00565b9050939250505056fea26469706673582212206fc9fc629c59c9a3bd241401e19600bfd808d3d338260937f48729d18f7c850764736f6c634300081c0033",
  "linkReferences": {},
  "deployedLinkReferences": {}
}