{
  "_format": "hh-sol-artifact-1",
  "contractName": "SASSharedRegistry",
  "sourceName": "contracts/SASSharedRegistry.sol",
  "abi": [
    {
      "inputs": [],
      "stateMutability": "nonpayable",
      "type": "constructor"
    },
    {
      "anonymous": false,
      "inputs": [
        {
          "indexed": true,
          "internalType": "string",
          "name": "fccId",
          "type": "string"
        },
        {
          "indexed": true,
          "internalType": "string",
          "name": "serialNumber",
          "type": "string"
        },
        {
          "indexed": true,
          "internalType": "address",
          "name": "sasOrigin",
          "type": "address"
        }
      ],
      "name": "CBSDRegistered",
      "type": "event"
    },
    {
      "anonymous": false,
      "inputs": [
        {
          "indexed": true,
          "internalType": "string",
          "name": "fccId",
          "type": "string"
        }
      ],
      "name": "FCCIdBlacklisted",
      "type": "event"
    },
    {
      "anonymous": false,
      "inputs": [
        {
          "indexed": true,
          "internalType": "string",
          "name": "fccId",
          "type": "string"
        },
        {
          "indexed": false,
          "internalType": "uint256",
          "name": "maxEirp",
          "type": "uint256"
        }
      ],
      "name": "FCCIdInjected",
      "type": "event"
    },
    {
      "anonymous": false,
      "inputs": [
        {
          "indexed": true,
          "internalType": "string",
          "name": "fccId",
          "type": "string"
        },
        {
          "indexed": true,
          "internalType": "string",
          "name": "serialNumber",
          "type": "string"
        },
        {
          "indexed": false,
          "internalType": "string",
          "name": "grantId",
          "type": "string"
        },
        {
          "indexed": true,
          "internalType": "address",
          "name": "sasOrigin",
          "type": "address"
        }
      ],
      "name": "GrantCreated",
      "type": "event"
    },
    {
      "anonymous": false,
      "inputs": [
        {
          "indexed": true,
          "internalType": "string",
          "name": "fccId",
          "type": "string"
        },
        {
          "indexed": true,
          "internalType": "string",
          "name": "serialNumber",
          "type": "string"
        },
        {
          "indexed": false,
          "internalType": "string",
          "name": "grantId",
          "type": "string"
        },
        {
          "indexed": true,
          "internalType": "address",
          "name": "sasOrigin",
          "type": "address"
        }
      ],
      "name": "GrantTerminated",
      "type": "event"
    },
    {
      "anonymous": false,
      "inputs": [
        {
          "indexed": true,
          "internalType": "address",
          "name": "sas",
          "type": "address"
        }
      ],
      "name": "SASAuthorized",
      "type": "event"
    },
    {
      "anonymous": false,
      "inputs": [
        {
          "indexed": true,
          "internalType": "address",
          "name": "sas",
          "type": "address"
        }
      ],
      "name": "SASRevoked",
      "type": "event"
    },
    {
      "anonymous": false,
      "inputs": [
        {
          "indexed": true,
          "internalType": "string",
          "name": "fccId",
          "type": "string"
        },
        {
          "indexed": true,
          "internalType": "string",
          "name": "serialNumber",
          "type": "string"
        }
      ],
      "name": "SerialNumberBlacklisted",
      "type": "event"
    },
    {
      "anonymous": false,
      "inputs": [
        {
          "indexed": true,
          "internalType": "string",
          "name": "userId",
          "type": "string"
        }
      ],
      "name": "UserIdInjected",
      "type": "event"
    },
    {
      "inputs": [
        {
          "internalType": "string",
          "name": "fccId",
          "type": "string"
        }
      ],
      "name": "BlacklistByFccId",
      "outputs": [],
      "stateMutability": "nonpayable",
      "type": "function"
    },
    {
      "inputs": [
        {
          "internalType": "string",
          "name": "fccId",
          "type": "string"
        },
        {
          "internalType": "string",
          "name": "serialNumber",
          "type": "string"
        }
      ],
      "name": "BlacklistByFccIdAndSerialNumber",
      "outputs": [],
      "stateMutability": "nonpayable",
      "type": "function"
    },
    {
      "inputs": [
        {
          "internalType": "string",
          "name": "fccId",
          "type": "string"
        },
        {
          "internalType": "string",
          "name": "cbsdSerialNumber",
          "type": "string"
        }
      ],
      "name": "Deregistration",
      "outputs": [],
      "stateMutability": "nonpayable",
      "type": "function"
    },
    {
      "inputs": [
        {
          "components": [
            {
              "internalType": "string",
              "name": "fccId",
              "type": "string"
            },
            {
              "internalType": "string",
              "name": "cbsdSerialNumber",
              "type": "string"
            },
            {
              "internalType": "string",
              "name": "channelType",
              "type": "string"
            },
            {
              "internalType": "uint256",
              "name": "maxEirp",
              "type": "uint256"
            },
            {
              "internalType": "uint256",
              "name": "lowFrequency",
              "type": "uint256"
            },
            {
              "internalType": "uint256",
              "name": "highFrequency",
              "type": "uint256"
            },
            {
              "internalType": "uint256",
              "name": "requestedMaxEirp",
              "type": "uint256"
            },
            {
              "internalType": "uint256",
              "name": "requestedLowFrequency",
              "type": "uint256"
            },
            {
              "internalType": "uint256",
              "name": "requestedHighFrequency",
              "type": "uint256"
            },
            {
              "internalType": "uint256",
              "name": "grantExpireTime",
              "type": "uint256"
            }
          ],
          "internalType": "struct SASSharedRegistry.GrantRequest",
          "name": "req",
          "type": "tuple"
        }
      ],
      "name": "GrantSpectrum",
      "outputs": [],
      "stateMutability": "nonpayable",
      "type": "function"
    },
    {
      "inputs": [
        {
          "internalType": "string",
          "name": "fccId",
          "type": "string"
        },
        {
          "internalType": "string",
          "name": "cbsdSerialNumber",
          "type": "string"
        },
        {
          "internalType": "string",
          "name": "grantId",
          "type": "string"
        }
      ],
      "name": "Heartbeat",
      "outputs": [],
      "stateMutability": "view",
      "type": "function"
    },
    {
      "inputs": [
        {
          "internalType": "string",
          "name": "fccId",
          "type": "string"
        },
        {
          "internalType": "uint256",
          "name": "maxEirp",
          "type": "uint256"
        }
      ],
      "name": "InjectFccId",
      "outputs": [],
      "stateMutability": "nonpayable",
      "type": "function"
    },
    {
      "inputs": [
        {
          "internalType": "string",
          "name": "userId",
          "type": "string"
        }
      ],
      "name": "InjectUserId",
      "outputs": [],
      "stateMutability": "nonpayable",
      "type": "function"
    },
    {
      "inputs": [
        {
          "components": [
            {
              "internalType": "string",
              "name": "fccId",
              "type": "string"
            },
            {
              "internalType": "string",
              "name": "userId",
              "type": "string"
            },
            {
              "internalType": "string",
              "name": "cbsdSerialNumber",
              "type": "string"
            },
            {
              "internalType": "string",
              "name": "callSign",
              "type": "string"
            },
            {
              "internalType": "string",
              "name": "cbsdCategory",
              "type": "string"
            },
            {
              "internalType": "string",
              "name": "airInterface",
              "type": "string"
            },
            {
              "internalType": "string[]",
              "name": "measCapability",
              "type": "string[]"
            },
            {
              "internalType": "uint256",
              "name": "eirpCapability",
              "type": "uint256"
            },
            {
              "internalType": "int256",
              "name": "latitude",
              "type": "int256"
            },
            {
              "internalType": "int256",
              "name": "longitude",
              "type": "int256"
            },
            {
              "internalType": "uint256",
              "name": "height",
              "type": "uint256"
            },
            {
              "internalType": "string",
              "name": "heightType",
              "type": "string"
            },
            {
              "internalType": "bool",
              "name": "indoorDeployment",
              "type": "bool"
            },
            {
              "internalType": "uint256",
              "name": "antennaGain",
              "type": "uint256"
            },
            {
              "internalType": "uint256",
              "name": "antennaBeamwidth",
              "type": "uint256"
            },
            {
              "internalType": "uint256",
              "name": "antennaAzimuth",
              "type": "uint256"
            },
            {
              "internalType": "string",
              "name": "groupingParam",
              "type": "string"
            },
            {
              "internalType": "string",
              "name": "cbsdAddress",
              "type": "string"
            }
          ],
          "internalType": "struct SASSharedRegistry.RegistrationRequest",
          "name": "req",
          "type": "tuple"
        }
      ],
      "name": "Registration",
      "outputs": [],
      "stateMutability": "nonpayable",
      "type": "function"
    },
    {
      "inputs": [
        {
          "internalType": "string",
          "name": "fccId",
          "type": "string"
        },
        {
          "internalType": "string",
          "name": "cbsdSerialNumber",
          "type": "string"
        },
        {
          "internalType": "string",
          "name": "grantId",
          "type": "string"
        }
      ],
      "name": "Relinquishment",
      "outputs": [],
      "stateMutability": "nonpayable",
      "type": "function"
    },
    {
      "inputs": [],
      "name": "Reset",
      "outputs": [],
      "stateMutability": "nonpayable",
      "type": "function"
    },
    {
      "inputs": [],
      "name": "TriggerFullActivityDump",
      "outputs": [],
      "stateMutability": "nonpayable",
      "type": "function"
    },
    {
      "inputs": [
        {
          "internalType": "address",
          "name": "_sas",
          "type": "address"
        }
      ],
      "name": "authorizeSAS",
      "outputs": [],
      "stateMutability": "nonpayable",
      "type": "function"
    },
    {
      "inputs": [
        {
          "internalType": "address",
          "name": "",
          "type": "address"
        }
      ],
      "name": "authorizedSAS",
      "outputs": [
        {
          "internalType": "bool",
          "name": "",
          "type": "bool"
        }
      ],
      "stateMutability": "view",
      "type": "function"
    },
    {
      "inputs": [
        {
          "internalType": "string",
          "name": "",
          "type": "string"
        }
      ],
      "name": "blacklistedFccIds",
      "outputs": [
        {
          "internalType": "bool",
          "name": "",
          "type": "bool"
        }
      ],
      "stateMutability": "view",
      "type": "function"
    },
    {
      "inputs": [
        {
          "internalType": "bytes32",
          "name": "",
          "type": "bytes32"
        }
      ],
      "name": "blacklistedSerialNumbers",
      "outputs": [
        {
          "internalType": "bool",
          "name": "",
          "type": "bool"
        }
      ],
      "stateMutability": "view",
      "type": "function"
    },
    {
      "inputs": [
        {
          "internalType": "bytes32",
          "name": "",
          "type": "bytes32"
        }
      ],
      "name": "cbsds",
      "outputs": [
        {
          "internalType": "string",
          "name": "fccId",
          "type": "string"
        },
        {
          "internalType": "string",
          "name": "userId",
          "type": "string"
        },
        {
          "internalType": "string",
          "name": "cbsdSerialNumber",
          "type": "string"
        },
        {
          "internalType": "string",
          "name": "callSign",
          "type": "string"
        },
        {
          "internalType": "string",
          "name": "cbsdCategory",
          "type": "string"
        },
        {
          "internalType": "string",
          "name": "airInterface",
          "type": "string"
        },
        {
          "internalType": "uint256",
          "name": "eirpCapability",
          "type": "uint256"
        },
        {
          "internalType": "int256",
          "name": "latitude",
          "type": "int256"
        },
        {
          "internalType": "int256",
          "name": "longitude",
          "type": "int256"
        },
        {
          "internalType": "uint256",
          "name": "height",
          "type": "uint256"
        },
        {
          "internalType": "string",
          "name": "heightType",
          "type": "string"
        },
        {
          "internalType": "bool",
          "name": "indoorDeployment",
          "type": "bool"
        },
        {
          "internalType": "uint256",
          "name": "antennaGain",
          "type": "uint256"
        },
        {
          "internalType": "uint256",
          "name": "antennaBeamwidth",
          "type": "uint256"
        },
        {
          "internalType": "uint256",
          "name": "antennaAzimuth",
          "type": "uint256"
        },
        {
          "internalType": "string",
          "name": "groupingParam",
          "type": "string"
        },
        {
          "internalType": "string",
          "name": "cbsdAddress",
          "type": "string"
        },
        {
          "internalType": "address",
          "name": "sasOrigin",
          "type": "address"
        },
        {
          "internalType": "uint256",
          "name": "registrationTimestamp",
          "type": "uint256"
        }
      ],
      "stateMutability": "view",
      "type": "function"
    },
    {
      "inputs": [
        {
          "internalType": "string",
          "name": "",
          "type": "string"
        }
      ],
      "name": "fccIds",
      "outputs": [
        {
          "internalType": "bool",
          "name": "",
          "type": "bool"
        }
      ],
      "stateMutability": "view",
      "type": "function"
    },
    {
      "inputs": [
        {
          "internalType": "string",
          "name": "fccId",
          "type": "string"
        },
        {
          "internalType": "string",
          "name": "cbsdSerialNumber",
          "type": "string"
        }
      ],
      "name": "getCBSDInfo",
      "outputs": [
        {
          "components": [
            {
              "internalType": "string",
              "name": "fccId",
              "type": "string"
            },
            {
              "internalType": "string",
              "name": "userId",
              "type": "string"
            },
            {
              "internalType": "string",
              "name": "cbsdSerialNumber",
              "type": "string"
            },
            {
              "internalType": "string",
              "name": "callSign",
              "type": "string"
            },
            {
              "internalType": "string",
              "name": "cbsdCategory",
              "type": "string"
            },
            {
              "internalType": "string",
              "name": "airInterface",
              "type": "string"
            },
            {
              "internalType": "string[]",
              "name": "measCapability",
              "type": "string[]"
            },
            {
              "internalType": "uint256",
              "name": "eirpCapability",
              "type": "uint256"
            },
            {
              "internalType": "int256",
              "name": "latitude",
              "type": "int256"
            },
            {
              "internalType": "int256",
              "name": "longitude",
              "type": "int256"
            },
            {
              "internalType": "uint256",
              "name": "height",
              "type": "uint256"
            },
            {
              "internalType": "string",
              "name": "heightType",
              "type": "string"
            },
            {
              "internalType": "bool",
              "name": "indoorDeployment",
              "type": "bool"
            },
            {
              "internalType": "uint256",
              "name": "antennaGain",
              "type": "uint256"
            },
            {
              "internalType": "uint256",
              "name": "antennaBeamwidth",
              "type": "uint256"
            },
            {
              "internalType": "uint256",
              "name": "antennaAzimuth",
              "type": "uint256"
            },
            {
              "internalType": "string",
              "name": "groupingParam",
              "type": "string"
            },
            {
              "internalType": "string",
              "name": "cbsdAddress",
              "type": "string"
            },
            {
              "internalType": "address",
              "name": "sasOrigin",
              "type": "address"
            },
            {
              "internalType": "uint256",
              "name": "registrationTimestamp",
              "type": "uint256"
            }
          ],
          "internalType": "struct SASSharedRegistry.CBSD",
          "name": "",
          "type": "tuple"
        }
      ],
      "stateMutability": "view",
      "type": "function"
    },
    {
      "inputs": [
        {
          "internalType": "string",
          "name": "fccId",
          "type": "string"
        },
        {
          "internalType": "string",
          "name": "cbsdSerialNumber",
          "type": "string"
        }
      ],
      "name": "getGrants",
      "outputs": [
        {
          "components": [
            {
              "internalType": "string",
              "name": "grantId",
              "type": "string"
            },
            {
              "internalType": "string",
              "name": "channelType",
              "type": "string"
            },
            {
              "internalType": "uint256",
              "name": "grantExpireTime",
              "type": "uint256"
            },
            {
              "internalType": "bool",
              "name": "terminated",
              "type": "bool"
            },
            {
              "internalType": "uint256",
              "name": "maxEirp",
              "type": "uint256"
            },
            {
              "internalType": "uint256",
              "name": "lowFrequency",
              "type": "uint256"
            },
            {
              "internalType": "uint256",
              "name": "highFrequency",
              "type": "uint256"
            },
            {
              "internalType": "uint256",
              "name": "requestedMaxEirp",
              "type": "uint256"
            },
            {
              "internalType": "uint256",
              "name": "requestedLowFrequency",
              "type": "uint256"
            },
            {
              "internalType": "uint256",
              "name": "requestedHighFrequency",
              "type": "uint256"
            },
            {
              "internalType": "address",
              "name": "sasOrigin",
              "type": "address"
            },
            {
              "internalType": "uint256",
              "name": "grantTimestamp",
              "type": "uint256"
            }
          ],
          "internalType": "struct SASSharedRegistry.Grant[]",
          "name": "",
          "type": "tuple[]"
        }
      ],
      "stateMutability": "view",
      "type": "function"
    },
    {
      "inputs": [
        {
          "internalType": "bytes32",
          "name": "",
          "type": "bytes32"
        },
        {
          "internalType": "uint256",
          "name": "",
          "type": "uint256"
        }
      ],
      "name": "grants",
      "outputs": [
        {
          "internalType": "string",
          "name": "grantId",
          "type": "string"
        },
        {
          "internalType": "string",
          "name": "channelType",
          "type": "string"
        },
        {
          "internalType": "uint256",
          "name": "grantExpireTime",
          "type": "uint256"
        },
        {
          "internalType": "bool",
          "name": "terminated",
          "type": "bool"
        },
        {
          "internalType": "uint256",
          "name": "maxEirp",
          "type": "uint256"
        },
        {
          "internalType": "uint256",
          "name": "lowFrequency",
          "type": "uint256"
        },
        {
          "internalType": "uint256",
          "name": "highFrequency",
          "type": "uint256"
        },
        {
          "internalType": "uint256",
          "name": "requestedMaxEirp",
          "type": "uint256"
        },
        {
          "internalType": "uint256",
          "name": "requestedLowFrequency",
          "type": "uint256"
        },
        {
          "internalType": "uint256",
          "name": "requestedHighFrequency",
          "type": "uint256"
        },
        {
          "internalType": "address",
          "name": "sasOrigin",
          "type": "address"
        },
        {
          "internalType": "uint256",
          "name": "grantTimestamp",
          "type": "uint256"
        }
      ],
      "stateMutability": "view",
      "type": "function"
    },
    {
      "inputs": [
        {
          "internalType": "string",
          "name": "fccId",
          "type": "string"
        },
        {
          "internalType": "string",
          "name": "cbsdSerialNumber",
          "type": "string"
        }
      ],
      "name": "isCBSDRegistered",
      "outputs": [
        {
          "internalType": "bool",
          "name": "",
          "type": "bool"
        }
      ],
      "stateMutability": "view",
      "type": "function"
    },
    {
      "inputs": [],
      "name": "owner",
      "outputs": [
        {
          "internalType": "address",
          "name": "",
          "type": "address"
        }
      ],
      "stateMutability": "view",
      "type": "function"
    },
    {
      "inputs": [
        {
          "internalType": "address",
          "name": "_sas",
          "type": "address"
        }
      ],
      "name": "revokeSAS",
      "outputs": [],
      "stateMutability": "nonpayable",
      "type": "function"
    },
    {
      "inputs": [],
      "name": "totalCbsds",
      "outputs": [
        {
          "internalType": "uint256",
          "name": "",
          "type": "uint256"
        }
      ],
      "stateMutability": "view",
      "type": "function"
    },
    {
      "inputs": [],
      "name": "totalGrants",
      "outputs": [
        {
          "internalType": "uint256",
          "name": "",
          "type": "uint256"
        }
      ],
      "stateMutability": "view",
      "type": "function"
    },
    {
      "inputs": [
        {
          "internalType": "string",
          "name": "",
          "type": "string"
        }
      ],
      "name": "userIds",
      "outputs": [
        {
          "internalType": "bool",
          "name": "",
          "type": "bool"
        }
      ],
      "stateMutability": "view",
      "type": "function"
    }
  ],
  "bytecode": "0x608080604052346065573360018060a01b031960005416176000553360005260016020526040600020600160ff19825416179055337ff9253a470d3ac8ce6a7c7c4d5b1bea05e7a79ab2de6a49027ddb5e842f1e7a33600080a26129ca908161006b8239f35b600080fdfe610140604052600436101561001357600080fd5b60003560e01c80630fa32be91461243d5780631cfd9c5014612398578063251595d91461231e57806333301285146122ed578063342a8ba6146121045780635aba5de0146114ed578063630a9ee8146113f35780636423db34146113c1578063741b7fbe14611323578063763cc1d21461119657806378abb6d9146110a15780637c3f0c7b14611053578063830c60fc14610c495780638da5cb5b14610c2057806394a6f83014610827578063a0fdaf9214610789578063a2e592e714610570578063a5719dc914610347578063b03776ca14610304578063c4a2f54f146102b6578063d468ec0214610255578063d9211be814610237578063de8d6f8514610219578063e68c7fe5146101f1578063e773e043146101795763fe60d95b1461013b57600080fd5b346101745761015261014c36612559565b90612904565b6000526002602052602061016a60406000205461263d565b1515604051908152f35b600080fd5b34610174576020366003190112610174576004356001600160a01b03811690819003610174576101b460018060a01b03600054163314612763565b806000526001602052604060002060ff1981541690557f2c1e02fb47e9d84e471ccc6d02067a9583b0a4a2381dd618b21364f0e9402987600080a2005b346101745760003660031901126101745761021760018060a01b03600054163314612763565b005b34610174576000366003190112610174576020600854604051908152f35b34610174576000366003190112610174576020600954604051908152f35b34610174576020366003190112610174576004356001600160401b0381116101745760ff6102a0602061028d8194369060040161253b565b816040519382858094519384920161271b565b8101600481520301902054166040519015158152f35b34610174576020366003190112610174576004356001600160401b0381116101745760ff6102ee602061028d8194369060040161253b565b8101600681520301902054166040519015158152f35b34610174576020366003190112610174576004356001600160a01b03811690819003610174576000526001602052602060ff604060002054166040519015158152f35b346101745761035861014c36612559565b60005260036020526040600020805490610371826128ed565b9161037f60405193846124d4565b808352602083019081926000526020600020916000905b82821061049857848660405191829160208301906020845251809152604083019060408160051b85010192916000905b8282106103d557505050500390f35b919360019193955060208091603f19898203018552875190610160806104196104098551610180865261018086019061273e565b868601518582038887015261273e565b93604081015160408501526060810151151560608501526080810151608085015260a081015160a085015260c081015160c085015260e081015160e0850152610100810151610100850152610120810151610120850152878060a01b0361014082015116610140850152015191015296019201920185949391926103c6565b60405161018081018181106001600160401b0382111761055a57600192600c926020926040526104c788612677565b81526104d4858901612677565b838201526002880154604082015260ff6003890154161515606082015260048801546080820152600588015460a0820152600688015460c0820152600788015460e082015260088801546101008201526009880154610120820152848060a01b03600a89015416610140820152600b880154610160820152815201940191019092610396565b634e487b7160e01b600052604160045260246000fd5b34610174576020366003190112610174576004356000526002602052604060002061059a81612677565b6105a660018301612677565b610100526105b660028301612677565b61012052816105c760038201612677565b916105d460048301612677565b926105e160058401612677565b600784015460088501546009860154600a87015491610602600b8901612677565b94600c89015460ff1699600d8a015497600e8b015499600f8c01549b60100161062a90612677565b9d61063760118201612677565b60805260128101546001600160a01b031660e0526013015460a05260405160c0818152610260918290525161066e9291019061273e565b60c051810360c0516020015261010051906106889161273e565b60c051810360c0516040015261012051906106a29161273e565b60c051810360c051606001526106b79161273e565b60c051810360c051608001526106cc9161273e565b60c051810360c05160a001526106e19161273e565b9360c05160c0015260c05160e0015260c051610100015260c051610120015260c051810360c05161014001526107169161273e565b93151560c051610160015260c051610180015260c0516101a0015260c0516101c0015260c051810360c0516101e0015261074f9161273e565b60c051810360c0516102000152608051906107699161273e565b60e05160c051610220015260a05160c051610240015260c051900360c051f35b34610174576020366003190112610174576004356001600160401b038111610174576107bc61080091369060040161253b565b6107d160018060a01b03600054163314612763565b60405160208183516107e6818385880161271b565b81016006815203019020600160ff198254161790556127a0565b7faa7c7a73a14b0c0a54038bd173a5cd7b41780fa88ef6483a6b941ceb6d178eeb600080a2005b34610174576020366003190112610174576004356001600160401b03811161017457806004016101406003198336030112610174576108ae602092336000526001845261087b60ff604060002054166127c0565b61088583806128ac565b929061014c60248401946108a661089c87896128ac565b94909236916124f5565b9236916124f5565b80600052600285526108ce6108c760406000205461263d565b1515612804565b6109306108db85806128ac565b969060266108e987896128ac565b866000939293526003855260406000205492818c6040519d8e97656772616e745f60d01b8a8a015286890137860191848301600081523701019081520380885201866124d4565b600052600360205260406000208054600160401b81101561055a576001810180835561095c828461260b565b50508111610c0a5761096d9161260b565b509084516001600160401b03811161055a576109938161098d855461263d565b8561294f565b6020601f8211600114610ba65790806109c292600091610b9b575b508160011b916000199060031b1c19161790565b82555b6109d260448201856128ac565b60018401916001600160401b03821161055a576109f38261098d855461263d565b600090601f8311600114610b32579180610a2a92610104969594600092610b27575b50508160011b916000199060031b1c19161790565b90555b610124810135600284015560038301805460ff19169055606481013560048401556084810135600584015560a4810135600684015560c4810135600784015560e481013560088401550135600980830191909155600a820180546001600160a01b0319163317905542600b9092019190915554610aa9906128de565b600955610ac1610ab983806128ac565b9290936128ac565b91909281604051928392833781016000815203902091816040519283928337810160008152039020907f329c3dac258de228876dc5e4f52e5477d35a7d0c99205ece9a8ab33093cdad0f6040516020815280610b223396602083019061273e565b0390a4005b013590508a80610a15565b8382526020822091601f198416815b818110610b8357509160019391856101049897969410610b69575b505050811b019055610a2d565b0135600019600384901b60f8161c19169055898080610b5c565b91936020600181928787013581550195019201610b41565b9050870151886109ae565b601f1982169084600052806000209160005b818110610bf257509083600194939210610bd9575b5050811b0182556109c5565b88015160001960f88460031b161c191690558780610bcd565b9192602060018192868d015181550194019201610bb8565b634e487b7160e01b600052601160045260246000fd5b34610174576000366003190112610174576000546040516001600160a01b039091168152602090f35b3461017457610cf6610c5a36612559565b906000610260604051610c6c816124b8565b60608152606060208201526060604082015260608082015260606080820152606060a0820152606060c08201528260e0820152826101008201528261012082015282610140820152606061016082015282610180820152826101a0820152826101c0820152826101e082015260606102008201526060610220820152826102408201520152612904565b6000526002602052604060002060405190610d10826124b8565b610d1981612677565b8252610d2760018201612677565b6020830152610d3860028201612677565b6040830152610d4960038201612677565b6060830152610d5a60048201612677565b6080830152610d6b60058201612677565b60a0830152600681018054610d7f816128ed565b91610d8d60405193846124d4565b818352602083019060005260206000206000915b83831061103657866013878760c0840152600781015460e084015260088101546101008401526009810154610120840152600a810154610140840152610de9600b8201612677565b61016084015260ff600c820154161515610180840152600d8101546101a0840152600e8101546101c0840152600f8101546101e0840152610e2c60108201612677565b610200840152610e3e60118201612677565b61022084015260018060a01b03601282015416610240840152015461026082015260405160208152610efb610ee5610ecf610eb9610ea3610e8d875161028060208901526102a088019061273e565b6020880151878203601f1901604089015261273e565b6040870151868203601f1901606088015261273e565b6060860151858203601f1901608087015261273e565b6080850151848203601f190160a086015261273e565b60a0840151838203601f190160c085015261273e565b9160c081015192601f198382030160e0840152835180825260208201916020808360051b8301019601926000915b83831061100957868087610260610fe9610fd1610f878e60e0860151610100880152610100860151610120880152610120860151610140880152610140860151610160880152610160860151601f198883030161018089015261273e565b61018085015115156101a08701526101a08501516101c08701526101c08501516101e08701526101e0850151610200870152610200850151601f198783030161022088015261273e565b610220840151858203601f190161024087015261273e565b6102408301516001600160a01b0316848301529101516102808301520390f35b9091929396602080611027600193601f198682030187528b5161273e565b99019301930191939290610f29565b60016020819261104585612677565b815201920192019190610da1565b34610174576020366003190112610174576004356001600160401b0381116101745760ff61108b602061028d8194369060040161253b565b8101600581520301902054166040519015158152f35b346101745760403660031901126101745760243560043560005260036020526040600020908154811015610174576110d89161260b565b506101806110e582612677565b916110f260018201612677565b60028201549160ff600382015416600482015460058301546006840154600785015491600886015493600987015495611159600b60018060a01b03600a8b0154169901549961114b6040519e8f9e8f818152019061273e565b8d810360208f01529061273e565b9960408c0152151560608b015260808a015260a089015260c088015260e08701526101008601526101208501526101408401526101608301520390f35b34610174576111c86111a7366125a3565b92913360005260016020526111c360ff604060002054166127c0565b612904565b908160005260026020526111e36108c760406000205461263d565b6000916000526003602052604060002060009181549260208201905b84811061124a575b50505050501561121357005b60405162461bcd60e51b815260206004820152600f60248201526e11dc985b9d081b9bdd08199bdd5b99608a1b6044820152606490fd5b61125d611257828661260b565b50612677565b602081519101208351832014611275576001016111ff565b8095508360ff9495506003935061128c925061260b565b500154166112eb576002916112a09161260b565b5001544210156112b65760018180808080611207565b60405162461bcd60e51b815260206004820152600d60248201526c11dc985b9d08195e1c1a5c9959609a1b6044820152606490fd5b60405162461bcd60e51b815260206004820152601060248201526f11dc985b9d081d195c9b5a5b985d195960821b6044820152606490fd5b34610174576020366003190112610174576004356001600160401b0381116101745761135661139a91369060040161253b565b61136b60018060a01b03600054163314612763565b6040516020818351611380818385880161271b565b81016005815203019020600160ff198254161790556127a0565b7fa168f4fdd6721108986fad1f03fabba057e975071a4e4f3806d9174cea6cbc0f600080a2005b34610174576000366003190112610174576113e760018060a01b03600054163314612763565b60006008819055600955005b3461017457611401366125a3565b919033600052600160205261141d60ff604060002054166127c0565b6114278183612904565b8060005260026020526114416108c760406000205461263d565b600052600360205260406000209160009260208501935b81548110156102175761146e611257828461260b565b60208151910120865186201461148657600101611458565b6114b493945061149c6003916114ae949361260b565b5001805460ff191660011790556127a0565b916127a0565b907f544c6f09ee1b67e675df5697fb3434a95bed263c7cfd8e8ecb28de5075b6e62b6040516020815280610b223396602083019061273e565b34610174576020366003190112610174576004356001600160401b03811161017457806004019080360390610240600319830112610174576115649133600052600160205261154360ff604060002054166127c0565b61154d84806128ac565b939061014c60448501956108a661089c888a6128ac565b9161156f85806128ac565b939061158660248401956108a661089c888b6128ac565b82600052600260205261159d60406000205461263d565b6120c9576040519060ff835192602081818701956115bc81838961271b565b8101600481520301902054161561208c576115e8602060ff92816040519382858094519384920161271b565b8101600581520301902054161561204e57611612602060ff9260405180938192875192839161271b565b8101600681520301902054166120145761163f9082600052600260205261014c6002604060002001612677565b600052600760205260ff60406000205416611fcf57600052600260205260406000209261166c86806128ac565b906001600160401b03821161055a5761168f82611689885461263d565b8861294f565b600090601f8311600114611f675791806116c4926116cd9594600092610b275750508160011b916000199060031b1c19161790565b85555b866128ac565b60018501916001600160401b03821161055a576116ee8261098d855461263d565b600090601f8311600114611f035761171e929160009183611c3c5750508160011b916000199060031b1c19161790565b90555b61172b84866128ac565b60028501916001600160401b03821161055a5761174c8261098d855461263d565b600090601f8311600114611e9f5761177c929160009183611c3c5750508160011b916000199060031b1c19161790565b90555b61178c60648201866128ac565b60038501916001600160401b03821161055a576117ad8261098d855461263d565b600090601f8311600114611e3b576117dd929160009183611c3c5750508160011b916000199060031b1c19161790565b90555b6117ed60848201866128ac565b60048501916001600160401b03821161055a5761180e8261098d855461263d565b600090601f8311600114611dd75761183e929160009183611c3c5750508160011b916000199060031b1c19161790565b90555b61184e60a48201866128ac565b60058501916001600160401b03821161055a5761186f8261098d855461263d565b600090601f8311600114611d735761189f929160009183611c3c5750508160011b916000199060031b1c19161790565b90555b60e4810135600784015561010481013560088401556101248101356009840155610144810135600a8401556118db6101648201866128ac565b600b8501916001600160401b03821161055a576118fc8261098d855461263d565b600090601f8311600114611d0f5761192c929160009183611c3c5750508160011b916000199060031b1c19161790565b90555b61018481013580151580910361017457600c84019060ff801983541691161790556101a4810135600d8401556101c4810135600e8401556101e4810135600f84015561197f6102048201866128ac565b60108501916001600160401b03821161055a576119a08261098d855461263d565b600090601f8311600114611cab576119d0929160009183611c3c5750508160011b916000199060031b1c19161790565b90555b6119e16102248201866128ac565b60118501916001600160401b03821161055a57611a028261098d855461263d565b600090601f8311600114611c4757611a32929160009183611c3c5750508160011b916000199060031b1c19161790565b90555b6012830180546001600160a01b0319163317905542601384015560c4810135916022190182121561017457016004810135906001600160401b03821161017457602401918160051b360383136101745760060191600160401b821161055a578254828455808310611c0d575b506000928352602083209290805b838310611b24578686611ac36008546128de565b600855611ad3610ab983806128ac565b9190928160405192839283378101600081520390209181604051928392833781016000815203902033917fa0dadc79a900797935f24d266e98b64b68e7aedd412001ece19e875b04a3b865600080a4005b611b2e81836128ac565b906001600160401b03821161055a57611b5182611b4b895461263d565b8961294f565b600090601f8311600114611ba35792611b8983600195946020948796600092611b985750508160011b916000199060031b1c19161790565b88555b01950192019193611aaf565b013590508d80610a15565b8782526020822091601f198416815b818110611bf55750936020936001969387969383889510611bdb575b505050811b018855611b8c565b0135600019600384901b60f8161c191690558c8080611bce565b91936020600181928787013581550195019201611bb2565b8360005282602060002091820191015b818110611c2a5750611aa1565b80611c3660019261285d565b01611c1d565b013590508980610a15565b8382526020822091601f198416815b818110611c935750908460019594939210611c79575b505050811b019055611a35565b0135600019600384901b60f8161c19169055888080611c6c565b91936020600181928787013581550195019201611c56565b8382526020822091601f198416815b818110611cf75750908460019594939210611cdd575b505050811b0190556119d3565b0135600019600384901b60f8161c19169055888080611cd0565b91936020600181928787013581550195019201611cba565b8382526020822091601f198416815b818110611d5b5750908460019594939210611d41575b505050811b01905561192f565b0135600019600384901b60f8161c19169055888080611d34565b91936020600181928787013581550195019201611d1e565b8382526020822091601f198416815b818110611dbf5750908460019594939210611da5575b505050811b0190556118a2565b0135600019600384901b60f8161c19169055888080611d98565b91936020600181928787013581550195019201611d82565b8382526020822091601f198416815b818110611e235750908460019594939210611e09575b505050811b019055611841565b0135600019600384901b60f8161c19169055888080611dfc565b91936020600181928787013581550195019201611de6565b8382526020822091601f198416815b818110611e875750908460019594939210611e6d575b505050811b0190556117e0565b0135600019600384901b60f8161c19169055888080611e60565b91936020600181928787013581550195019201611e4a565b8382526020822091601f198416815b818110611eeb5750908460019594939210611ed1575b505050811b01905561177f565b0135600019600384901b60f8161c19169055888080611ec4565b91936020600181928787013581550195019201611eae565b8382526020822091601f198416815b818110611f4f5750908460019594939210611f35575b505050811b019055611721565b0135600019600384901b60f8161c19169055888080611f28565b91936020600181928787013581550195019201611f12565b8682526020822091601f198416815b818110611fb757509160019391856116cd97969410611f9d575b505050811b0185556116c7565b0135600019600384901b60f8161c19169055898080611f90565b91936020600181928787013581550195019201611f76565b60405162461bcd60e51b815260206004820152601960248201527f53657269616c206e756d62657220626c61636b6c6973746564000000000000006044820152606490fd5b60405162461bcd60e51b81526020600482015260126024820152711190d0c8125108189b1858dadb1a5cdd195960721b6044820152606490fd5b60405162461bcd60e51b8152602060048201526016602482015275155cd95c881251081b9bdd08185d5d1a1bdc9a5e995960521b6044820152606490fd5b60405162461bcd60e51b81526020600482015260156024820152741190d0c81251081b9bdd08185d5d1a1bdc9a5e9959605a1b6044820152606490fd5b60405162461bcd60e51b81526020600482015260136024820152724342534420616c72656164792065786973747360681b6044820152606490fd5b346101745761213061211536612559565b903360005260016020526111c360ff604060002054166127c0565b80600052600260205261214a6108c760406000205461263d565b80600052600260205260406000206121618161285d565b61216d6001820161285d565b6121796002820161285d565b6121856003820161285d565b6121916004820161285d565b61219d6005820161285d565b6006810180549060008155816122c6575b5050601360009182600782015582600882015582600982015582600a8201556121d9600b820161285d565b82600c82015582600d82015582600e82015582600f8201556121fd6010820161285d565b6122096011820161285d565b826012820155015560005260036020526040600020805490600081558161223f575b50506008548015610c0a5760001901600855005b81600c0291600c830403610c0a576000526020600020908101905b8181101561222b578061226e600c9261285d565b61227a6001820161285d565b60006002820155600060038201556000600482015560006005820155600060068201556000600782015560006008820155600060098201556000600a8201556000600b8201550161225a565b6000526020600020908101905b818110156121ae57806122e760019261285d565b016122d3565b34610174576020366003190112610174576004356000526007602052602060ff604060002054166040519015158152f35b34610174576114ae61237061233236612559565b929061234960018060a01b03600054163314612763565b6123538482612904565b60005260076020526040600020600160ff198254161790556127a0565b907f3ca2a6c58efad8e93f57996d38d4e260adb82201672576f3d2d15467373bc8f0600080a3005b34610174576040366003190112610174576004356001600160401b038111610174576123cb61240f91369060040161253b565b6123e060018060a01b03600054163314612763565b60405160208183516123f5818385880161271b565b81016004815203019020600160ff198254161790556127a0565b7f58a4e3ca4a47dcbc2b7b3c2574b3968313c2dc5b71ec379c653b559fcc2dc2e760206040516024358152a2005b34610174576020366003190112610174576004356001600160a01b038116908190036101745761247860018060a01b03600054163314612763565b8060005260016020526040600020600160ff198254161790557ff9253a470d3ac8ce6a7c7c4d5b1bea05e7a79ab2de6a49027ddb5e842f1e7a33600080a2005b61028081019081106001600160401b0382111761055a57604052565b90601f801991011681019081106001600160401b0382111761055a57604052565b9291926001600160401b03821161055a576040519161251e601f8201601f1916602001846124d4565b829481845281830111610174578281602093846000960137010152565b9080601f8301121561017457816020612556933591016124f5565b90565b906040600319830112610174576004356001600160401b03811161017457826125849160040161253b565b91602435906001600160401b038211610174576125569160040161253b565b6060600319820112610174576004356001600160401b03811161017457816125cd9160040161253b565b916024356001600160401b03811161017457826125ec9160040161253b565b91604435906001600160401b038211610174576125569160040161253b565b805482101561262757600052600c602060002091020190600090565b634e487b7160e01b600052603260045260246000fd5b90600182811c9216801561266d575b602083101461265757565b634e487b7160e01b600052602260045260246000fd5b91607f169161264c565b906040519182600082549261268b8461263d565b80845293600181169081156126f957506001146126b2575b506126b0925003836124d4565b565b90506000929192526020600020906000915b8183106126dd5750509060206126b092820101386126a3565b60209193508060019154838589010152019101909184926126c4565b9050602092506126b094915060ff191682840152151560051b820101386126a3565b60005b83811061272e5750506000910152565b818101518382015260200161271e565b906020916127578151809281855285808601910161271b565b601f01601f1916010190565b1561276a57565b60405162461bcd60e51b815260206004820152600e60248201526d139bdd08185d5d1a1bdc9a5e995960921b6044820152606490fd5b6127b89060206040519282848094519384920161271b565b810103902090565b156127c757565b60405162461bcd60e51b81526020600482015260156024820152744e6f7420616e20617574686f72697a65642053415360581b6044820152606490fd5b1561280b57565b60405162461bcd60e51b815260206004820152601360248201527210d094d1081b9bdd081c9959da5cdd195c9959606a1b6044820152606490fd5b818110612851575050565b60008155600101612846565b612867815461263d565b9081612871575050565b81601f60009311600114612883575055565b8183526020832061289f91601f0160051c810190600101612846565b8082528160208120915555565b903590601e198136030182121561017457018035906001600160401b0382116101745760200191813603831361017457565b6000198114610c0a5760010190565b6001600160401b03811161055a5760051b60200190565b9061294960209160405192839181612925818501978881519384920161271b565b83016129398251809385808501910161271b565b010103601f1981018352826124d4565b51902090565b9190601f811161295e57505050565b6126b0926000526020600020906020601f840160051c8301931061298a575b601f0160051c0190612846565b909150819061297d56fea26469706673582212206ca0ee3a6af9665ad09960fba47f0f0e8d64abdbbb43dfbd8f5444fbd1a38c4e64736f6c634300081c0033",
  "linkReferences": {},
  "deployedLinkReferences": {}
}