{
  "_format": "hh-sol-artifact-1",
  "contractName": "SASSharedRegistry",
  "sourceName": "contracts/SASSharedRegistry.sol",
  "abi": [
    {
      "inputs": [],
      "stateMutability": "nonpayable",
      "type": "constructor"
    },
    {
      "anonymous": false,
      "inputs": [
        {
          "indexed": true,
          "internalType": "address",
          "name": "from",
          "type": "address"
        },
        {
          "indexed": false,
          "internalType": "string",
          "name": "payload",
          "type": "string"
        },
        {
          "indexed": false,
          "internalType": "uint256",
          "name": "timestamp",
          "type": "uint256"
        }
      ],
      "name": "Deregistration",
      "type": "event"
    },
    {
      "anonymous": false,
      "inputs": [
        {
          "indexed": true,
          "internalType": "address",
          "name": "from",
          "type": "address"
        },
        {
          "indexed": false,
          "internalType": "string",
          "name": "payload",
          "type": "string"
        },
        {
          "indexed": false,
          "internalType": "uint256",
          "name": "timestamp",
          "type": "uint256"
        }
      ],
      "name": "Grant",
      "type": "event"
    },
    {
      "anonymous": false,
      "inputs": [
        {
          "indexed": true,
          "internalType": "address",
          "name": "from",
          "type": "address"
        },
        {
          "indexed": false,
          "internalType": "string",
          "name": "payload",
          "type": "string"
        },
        {
          "indexed": false,
          "internalType": "uint256",
          "name": "timestamp",
          "type": "uint256"
        }
      ],
      "name": "Heartbeat",
      "type": "event"
    },
    {
      "anonymous": false,
      "inputs": [
        {
          "indexed": true,
          "internalType": "address",
          "name": "from",
          "type": "address"
        },
        {
          "indexed": false,
          "internalType": "string",
          "name": "payload",
          "type": "string"
        },
        {
          "indexed": false,
          "internalType": "uint256",
          "name": "timestamp",
          "type": "uint256"
        }
      ],
      "name": "Registration",
      "type": "event"
    },
    {
      "anonymous": false,
      "inputs": [
        {
          "indexed": true,
          "internalType": "address",
          "name": "from",
          "type": "address"
        },
        {
          "indexed": false,
          "internalType": "string",
          "name": "payload",
          "type": "string"
        },
        {
          "indexed": false,
          "internalType": "uint256",
          "name": "timestamp",
          "type": "uint256"
        }
      ],
      "name": "Relinquishment",
      "type": "event"
    },
    {
      "anonymous": false,
      "inputs": [
        {
          "indexed": true,
          "internalType": "address",
          "name": "sas",
          "type": "address"
        }
      ],
      "name": "SASAuthorized",
      "type": "event"
    },
    {
      "anonymous": false,
      "inputs": [
        {
          "indexed": true,
          "internalType": "address",
          "name": "sas",
          "type": "address"
        }
      ],
      "name": "SASRevoked",
      "type": "event"
    },
    {
      "inputs": [
        {
          "internalType": "address",
          "name": "_sas",
          "type": "address"
        }
      ],
      "name": "authorizeSAS",
      "outputs": [],
      "stateMutability": "nonpayable",
      "type": "function"
    },
    {
      "inputs": [
        {
          "internalType": "address",
          "name": "",
          "type": "address"
        }
      ],
      "name": "authorizedSAS",
      "outputs": [
        {
          "internalType": "bool",
          "name": "",
          "type": "bool"
        }
      ],
      "stateMutability": "view",
      "type": "function"
    },
    {
      "inputs": [
        {
          "internalType": "string",
          "name": "payload",
          "type": "string"
        }
      ],
      "name": "deregistration",
      "outputs": [],
      "stateMutability": "nonpayable",
      "type": "function"
    },
    {
      "inputs": [
        {
          "internalType": "string",
          "name": "payload",
          "type": "string"
        }
      ],
      "name": "grant",
      "outputs": [],
      "stateMutability": "nonpayable",
      "type": "function"
    },
    {
      "inputs": [
        {
          "internalType": "string",
          "name": "payload",
          "type": "string"
        }
      ],
      "name": "heartbeat",
      "outputs": [],
      "stateMutability": "nonpayable",
      "type": "function"
    },
    {
      "inputs": [],
      "name": "owner",
      "outputs": [
        {
          "internalType": "address",
          "name": "",
          "type": "address"
        }
      ],
      "stateMutability": "view",
      "type": "function"
    },
    {
      "inputs": [
        {
          "internalType": "string",
          "name": "payload",
          "type": "string"
        }
      ],
      "name": "registration",
      "outputs": [],
      "stateMutability": "nonpayable",
      "type": "function"
    },
    {
      "inputs": [
        {
          "internalType": "string",
          "name": "payload",
          "type": "string"
        }
      ],
      "name": "relinquishment",
      "outputs": [],
      "stateMutability": "nonpayable",
      "type": "function"
    },
    {
      "inputs": [
        {
          "internalType": "address",
          "name": "_sas",
          "type": "address"
        }
      ],
      "name": "revokeSAS",
      "outputs": [],
      "stateMutability": "nonpayable",
      "type": "function"
    }
  ],
  "bytecode": "0x608080604052346065573360018060a01b031960005416176000553360005260016020526040600020600160ff19825416179055337ff9253a470d3ac8ce6a7c7c4d5b1bea05e7a79ab2de6a49027ddb5e842f1e7a33600080a2610445908161006b8239f35b600080fdfe6080604052600436101561001257600080fd5b60003560e01c80630fa32be9146102935780630fd6ff49146102615780631e97f5fa1461022f5780635e7c2f10146101fd57806368a33080146101cb5780638da5cb5b146101a2578063b03776ca1461015f578063e773e043146100e75763ec12b9a61461007f57600080fd5b346100e2576100dd7f3dc4b2a783a972660c53df89d02148027578683b9b7c6d645eb3b4d57bced8f96100b13661030e565b92903360005260016020526100cd60ff6040600020541661039c565b60405191829133954291846103e0565b0390a2005b600080fd5b346100e25760203660031901126100e2576004356001600160a01b038116908190036100e25761012260018060a01b0360005416331461035f565b806000526001602052604060002060ff1981541690557f2c1e02fb47e9d84e471ccc6d02067a9583b0a4a2381dd618b21364f0e9402987600080a2005b346100e25760203660031901126100e2576004356001600160a01b038116908190036100e2576000526001602052602060ff604060002054166040519015158152f35b346100e25760003660031901126100e2576000546040516001600160a01b039091168152602090f35b346100e2576100dd7fa01f80a9244bbbd0504e1cc2f651406d7eb87a5040d50b926b196245684baccb6100b13661030e565b346100e2576100dd7f1f3f3337f31df14aacad43af6e83e5067e33495464b7239701eaabb7f0b6832f6100b13661030e565b346100e2576100dd7fa24bd3623d923a7601bbfb27656ac4646d0fa7a8dcce31b18643051c5d0684396100b13661030e565b346100e2576100dd7f42d296ee2ff9802923c52c1d534be7d0ed90665309626fc2370f912b65ea6d0c6100b13661030e565b346100e25760203660031901126100e2576004356001600160a01b038116908190036100e2576102ce60018060a01b0360005416331461035f565b8060005260016020526040600020600160ff198254161790557ff9253a470d3ac8ce6a7c7c4d5b1bea05e7a79ab2de6a49027ddb5e842f1e7a33600080a2005b9060206003198301126100e25760043567ffffffffffffffff81116100e257826023820112156100e25780600401359267ffffffffffffffff84116100e257602484830101116100e2576024019190565b1561036657565b60405162461bcd60e51b815260206004820152600e60248201526d139bdd08185d5d1a1bdc9a5e995960921b6044820152606490fd5b156103a357565b60405162461bcd60e51b81526020600482015260156024820152744e6f7420616e20617574686f72697a65642053415360581b6044820152606490fd5b9392918060609160209360408852816040890152838801376000828288010152601f801991011685010193015256fea264697066735822122035a33db0325365741c0f88a31b71231f53dc9041e3fa8f97b4a154d0414d1a7d64736f6c634300081c0033",
  "linkReferences": {},
  "deployedLinkReferences": {}
}